{
  "_format": "hh-sol-artifact-1",
  "contractName": "SchusterEthereumFaucet",
  "sourceName": "contracts/SchusterianEtherFaucet.sol",
  "abi": [
    {
      "inputs": [
        {
          "internalType": "address",
          "name": "_tokenAddress",
          "type": "address"
        }
      ],
      "stateMutability": "nonpayable",
      "type": "constructor"
    },
    {
      "anonymous": false,
      "inputs": [
        {
          "indexed": true,
          "internalType": "address",
          "name": "previousOwner",
          "type": "address"
        },
        {
          "indexed": true,
          "internalType": "address",
          "name": "newOwner",
          "type": "address"
        }
      ],
      "name": "OwnershipTransferred",
      "type": "event"
    },
    {
      "stateMutability": "payable",
      "type": "fallback"
    },
    {
      "inputs": [],
      "name": "getBalance",
      "outputs": [
        {
          "internalType": "uint256",
          "name": "",
          "type": "uint256"
        }
      ],
      "stateMutability": "view",
      "type": "function"
    },
    {
      "inputs": [],
      "name": "owner",
      "outputs": [
        {
          "internalType": "address",
          "name": "",
          "type": "address"
        }
      ],
      "stateMutability": "view",
      "type": "function"
    },
    {
      "inputs": [],
      "name": "renounceOwnership",
      "outputs": [],
      "stateMutability": "nonpayable",
      "type": "function"
    },
    {
      "inputs": [
        {
          "internalType": "address payable",
          "name": "_to",
          "type": "address"
        }
      ],
      "name": "sendFaucetTokens",
      "outputs": [],
      "stateMutability": "nonpayable",
      "type": "function"
    },
    {
      "inputs": [
        {
          "internalType": "address",
          "name": "_user",
          "type": "address"
        }
      ],
      "name": "sentTokens",
      "outputs": [
        {
          "internalType": "bool",
          "name": "",
          "type": "bool"
        }
      ],
      "stateMutability": "view",
      "type": "function"
    },
    {
      "inputs": [
        {
          "internalType": "address",
          "name": "newOwner",
          "type": "address"
        }
      ],
      "name": "transferOwnership",
      "outputs": [],
      "stateMutability": "nonpayable",
      "type": "function"
    },
    {
      "stateMutability": "payable",
      "type": "receive"
    }
  ],
  "bytecode": "0x6080604052670de0b6b3a764000060045534801561001c57600080fd5b50604051610c33380380610c33833981810160405281019061003e9190610182565b61005a61004f6100a160201b60201c565b6100a960201b60201c565b80600160006101000a81548173ffffffffffffffffffffffffffffffffffffffff021916908373ffffffffffffffffffffffffffffffffffffffff160217905550506101f4565b600033905090565b60008060009054906101000a900473ffffffffffffffffffffffffffffffffffffffff169050816000806101000a81548173ffffffffffffffffffffffffffffffffffffffff021916908373ffffffffffffffffffffffffffffffffffffffff1602179055508173ffffffffffffffffffffffffffffffffffffffff168173ffffffffffffffffffffffffffffffffffffffff167f8be0079c531659141344cd1fd0a4f28419497f9722a3daafe3b4186f6b6457e060405160405180910390a35050565b60008151905061017c816101dd565b92915050565b60006020828403121561019457600080fd5b60006101a28482850161016d565b91505092915050565b60006101b6826101bd565b9050919050565b600073ffffffffffffffffffffffffffffffffffffffff82169050919050565b6101e6816101ab565b81146101f157600080fd5b50565b610a30806102036000396000f3fe6080604052600436106100595760003560e01c806312065fe014610094578063715018a6146100bf5780638da5cb5b146100d657806390bf955114610101578063b3f0ca511461012a578063f2fde38b1461016757610079565b3661007957346002600082825461007091906108ed565b92505081905550005b346002600082825461008b91906108ed565b92505081905550005b3480156100a057600080fd5b506100a9610190565b6040516100b691906108b6565b60405180910390f35b3480156100cb57600080fd5b506100d461019a565b005b3480156100e257600080fd5b506100eb610222565b6040516100f89190610800565b60405180910390f35b34801561010d57600080fd5b5061012860048036038101906101239190610655565b61024b565b005b34801561013657600080fd5b50610151600480360381019061014c919061062c565b6103e8565b60405161015e919061081b565b60405180910390f35b34801561017357600080fd5b5061018e6004803603810190610189919061062c565b61043e565b005b6000600254905090565b6101a2610536565b73ffffffffffffffffffffffffffffffffffffffff166101c0610222565b73ffffffffffffffffffffffffffffffffffffffff1614610216576040517f08c379a000000000000000000000000000000000000000000000000000000000815260040161020d90610896565b60405180910390fd5b610220600061053e565b565b60008060009054906101000a900473ffffffffffffffffffffffffffffffffffffffff16905090565b60001515600360008373ffffffffffffffffffffffffffffffffffffffff1673ffffffffffffffffffffffffffffffffffffffff16815260200190815260200160002060009054906101000a900460ff161515146102de576040517f08c379a00000000000000000000000000000000000000000000000000000000081526004016102d590610856565b60405180910390fd5b6001600360008373ffffffffffffffffffffffffffffffffffffffff1673ffffffffffffffffffffffffffffffffffffffff16815260200190815260200160002060006101000a81548160ff02191690831515021790555060008173ffffffffffffffffffffffffffffffffffffffff1660045460405161035e906107eb565b60006040518083038185875af1925050503d806000811461039b576040519150601f19603f3d011682016040523d82523d6000602084013e6103a0565b606091505b50509050806103e4576040517f08c379a00000000000000000000000000000000000000000000000000000000081526004016103db90610876565b60405180910390fd5b5050565b6000600360008373ffffffffffffffffffffffffffffffffffffffff1673ffffffffffffffffffffffffffffffffffffffff16815260200190815260200160002060009054906101000a900460ff169050919050565b610446610536565b73ffffffffffffffffffffffffffffffffffffffff16610464610222565b73ffffffffffffffffffffffffffffffffffffffff16146104ba576040517f08c379a00000000000000000000000000000000000000000000000000000000081526004016104b190610896565b60405180910390fd5b600073ffffffffffffffffffffffffffffffffffffffff168173ffffffffffffffffffffffffffffffffffffffff16141561052a576040517f08c379a000000000000000000000000000000000000000000000000000000000815260040161052190610836565b60405180910390fd5b6105338161053e565b50565b600033905090565b60008060009054906101000a900473ffffffffffffffffffffffffffffffffffffffff169050816000806101000a81548173ffffffffffffffffffffffffffffffffffffffff021916908373ffffffffffffffffffffffffffffffffffffffff1602179055508173ffffffffffffffffffffffffffffffffffffffff168173ffffffffffffffffffffffffffffffffffffffff167f8be0079c531659141344cd1fd0a4f28419497f9722a3daafe3b4186f6b6457e060405160405180910390a35050565b600081359050610611816109cc565b92915050565b600081359050610626816109e3565b92915050565b60006020828403121561063e57600080fd5b600061064c84828501610602565b91505092915050565b60006020828403121561066757600080fd5b600061067584828501610617565b91505092915050565b61068781610943565b82525050565b61069681610967565b82525050565b60006106a96026836108dc565b91507f4f776e61626c653a206e6577206f776e657220697320746865207a65726f206160008301527f64647265737300000000000000000000000000000000000000000000000000006020830152604082019050919050565b600061070f6020836108dc565b91507f596f75206861766520616c726561647920726563656976656420746f6b656e736000830152602082019050919050565b600061074f6015836108dc565b91507f4661696c656420746f2073656e642045746865722100000000000000000000006000830152602082019050919050565b600061078f6020836108dc565b91507f4f776e61626c653a2063616c6c6572206973206e6f7420746865206f776e65726000830152602082019050919050565b60006107cf6000836108d1565b9150600082019050919050565b6107e581610993565b82525050565b60006107f6826107c2565b9150819050919050565b6000602082019050610815600083018461067e565b92915050565b6000602082019050610830600083018461068d565b92915050565b6000602082019050818103600083015261084f8161069c565b9050919050565b6000602082019050818103600083015261086f81610702565b9050919050565b6000602082019050818103600083015261088f81610742565b9050919050565b600060208201905081810360008301526108af81610782565b9050919050565b60006020820190506108cb60008301846107dc565b92915050565b600081905092915050565b600082825260208201905092915050565b60006108f882610993565b915061090383610993565b9250827fffffffffffffffffffffffffffffffffffffffffffffffffffffffffffffffff038211156109385761093761099d565b5b828201905092915050565b600061094e82610973565b9050919050565b600061096082610973565b9050919050565b60008115159050919050565b600073ffffffffffffffffffffffffffffffffffffffff82169050919050565b6000819050919050565b7f4e487b7100000000000000000000000000000000000000000000000000000000600052601160045260246000fd5b6109d581610943565b81146109e057600080fd5b50565b6109ec81610955565b81146109f757600080fd5b5056fea2646970667358221220c200684e8eb5fdec3e8a743058788e483200b635456a6398dd8e33abaf54d23864736f6c63430008000033",
  "linkReferences": {},
  "deployedLinkReferences": {}
}