{
  "_format": "hh-sol-artifact-1",
  "contractName": "SchusterEthereumFaucet",
  "sourceName": "contracts/SchusterianEtherFaucet.sol",
  "abi": [
    {
      "inputs": [
        {
          "internalType": "address",
          "name": "_tokenAddress",
          "type": "address"
        }
      ],
      "stateMutability": "nonpayable",
      "type": "constructor"
    },
    {
      "anonymous": false,
      "inputs": [
        {
          "indexed": true,
          "internalType": "address",
          "name": "previousOwner",
          "type": "address"
        },
        {
          "indexed": true,
          "internalType": "address",
          "name": "newOwner",
          "type": "address"
        }
      ],
      "name": "OwnershipTransferred",
      "type": "event"
    },
    {
      "inputs": [],
      "name": "fillFaucet",
      "outputs": [],
      "stateMutability": "payable",
      "type": "function"
    },
    {
      "inputs": [],
      "name": "owner",
      "outputs": [
        {
          "internalType": "address",
          "name": "",
          "type": "address"
        }
      ],
      "stateMutability": "view",
      "type": "function"
    },
    {
      "inputs": [],
      "name": "renounceOwnership",
      "outputs": [],
      "stateMutability": "nonpayable",
      "type": "function"
    },
    {
      "inputs": [
        {
          "internalType": "address payable",
          "name": "_to",
          "type": "address"
        }
      ],
      "name": "sendFaucetTokens",
      "outputs": [],
      "stateMutability": "view",
      "type": "function"
    },
    {
      "inputs": [
        {
          "internalType": "address",
          "name": "newOwner",
          "type": "address"
        }
      ],
      "name": "transferOwnership",
      "outputs": [],
      "stateMutability": "nonpayable",
      "type": "function"
    }
  ],
  "bytecode": "0x6080604052600160035534801561001557600080fd5b5060405161089b38038061089b8339818101604052810190610037919061017b565b61005361004861009a60201b60201c565b6100a260201b60201c565b80600160006101000a81548173ffffffffffffffffffffffffffffffffffffffff021916908373ffffffffffffffffffffffffffffffffffffffff160217905550506101ed565b600033905090565b60008060009054906101000a900473ffffffffffffffffffffffffffffffffffffffff169050816000806101000a81548173ffffffffffffffffffffffffffffffffffffffff021916908373ffffffffffffffffffffffffffffffffffffffff1602179055508173ffffffffffffffffffffffffffffffffffffffff168173ffffffffffffffffffffffffffffffffffffffff167f8be0079c531659141344cd1fd0a4f28419497f9722a3daafe3b4186f6b6457e060405160405180910390a35050565b600081519050610175816101d6565b92915050565b60006020828403121561018d57600080fd5b600061019b84828501610166565b91505092915050565b60006101af826101b6565b9050919050565b600073ffffffffffffffffffffffffffffffffffffffff82169050919050565b6101df816101a4565b81146101ea57600080fd5b50565b61069f806101fc6000396000f3fe60806040526004361061004a5760003560e01c806324f790191461004f578063715018a6146100595780638da5cb5b1461007057806390bf95511461009b578063f2fde38b146100c4575b600080fd5b6100576100ed565b005b34801561006557600080fd5b5061006e6100ef565b005b34801561007c57600080fd5b50610085610177565b604051610092919061056b565b60405180910390f35b3480156100a757600080fd5b506100c260048036038101906100bd919061044d565b6101a0565b005b3480156100d057600080fd5b506100eb60048036038101906100e69190610424565b610236565b005b565b6100f761032e565b73ffffffffffffffffffffffffffffffffffffffff16610115610177565b73ffffffffffffffffffffffffffffffffffffffff161461016b576040517f08c379a0000000000000000000000000000000000000000000000000000000008152600401610162906105c6565b60405180910390fd5b6101756000610336565b565b60008060009054906101000a900473ffffffffffffffffffffffffffffffffffffffff16905090565b60001515600260008373ffffffffffffffffffffffffffffffffffffffff1673ffffffffffffffffffffffffffffffffffffffff16815260200190815260200160002060009054906101000a900460ff16151514610233576040517f08c379a000000000000000000000000000000000000000000000000000000000815260040161022a906105a6565b60405180910390fd5b50565b61023e61032e565b73ffffffffffffffffffffffffffffffffffffffff1661025c610177565b73ffffffffffffffffffffffffffffffffffffffff16146102b2576040517f08c379a00000000000000000000000000000000000000000000000000000000081526004016102a9906105c6565b60405180910390fd5b600073ffffffffffffffffffffffffffffffffffffffff168173ffffffffffffffffffffffffffffffffffffffff161415610322576040517f08c379a000000000000000000000000000000000000000000000000000000000815260040161031990610586565b60405180910390fd5b61032b81610336565b50565b600033905090565b60008060009054906101000a900473ffffffffffffffffffffffffffffffffffffffff169050816000806101000a81548173ffffffffffffffffffffffffffffffffffffffff021916908373ffffffffffffffffffffffffffffffffffffffff1602179055508173ffffffffffffffffffffffffffffffffffffffff168173ffffffffffffffffffffffffffffffffffffffff167f8be0079c531659141344cd1fd0a4f28419497f9722a3daafe3b4186f6b6457e060405160405180910390a35050565b6000813590506104098161063b565b92915050565b60008135905061041e81610652565b92915050565b60006020828403121561043657600080fd5b6000610444848285016103fa565b91505092915050565b60006020828403121561045f57600080fd5b600061046d8482850161040f565b91505092915050565b61047f816105f7565b82525050565b60006104926026836105e6565b91507f4f776e61626c653a206e6577206f776e657220697320746865207a65726f206160008301527f64647265737300000000000000000000000000000000000000000000000000006020830152604082019050919050565b60006104f86020836105e6565b91507f596f75206861766520616c726561647920726563656976656420746f6b656e736000830152602082019050919050565b60006105386020836105e6565b91507f4f776e61626c653a2063616c6c6572206973206e6f7420746865206f776e65726000830152602082019050919050565b60006020820190506105806000830184610476565b92915050565b6000602082019050818103600083015261059f81610485565b9050919050565b600060208201905081810360008301526105bf816104eb565b9050919050565b600060208201905081810360008301526105df8161052b565b9050919050565b600082825260208201905092915050565b60006106028261061b565b9050919050565b60006106148261061b565b9050919050565b600073ffffffffffffffffffffffffffffffffffffffff82169050919050565b610644816105f7565b811461064f57600080fd5b50565b61065b81610609565b811461066657600080fd5b5056fea2646970667358221220029d327a5c11076fa25e3a7aa9205392be4bfa253208e708ab3db6a755d2a47864736f6c63430008000033",
  "linkReferences": {},
  "deployedLinkReferences": {}
}