{
  "_format": "hh-sol-artifact-1",
  "contractName": "SchusterEtherFaucet",
  "sourceName": "contracts/SchusterEtherFaucet.sol",
  "abi": [
    {
      "inputs": [
        {
          "internalType": "address",
          "name": "_tokenAddress",
          "type": "address"
        }
      ],
      "stateMutability": "nonpayable",
      "type": "constructor"
    },
    {
      "anonymous": false,
      "inputs": [
        {
          "indexed": true,
          "internalType": "address",
          "name": "previousOwner",
          "type": "address"
        },
        {
          "indexed": true,
          "internalType": "address",
          "name": "newOwner",
          "type": "address"
        }
      ],
      "name": "OwnershipTransferred",
      "type": "event"
    },
    {
      "anonymous": false,
      "inputs": [
        {
          "indexed": false,
          "internalType": "address",
          "name": "_user",
          "type": "address"
        },
        {
          "indexed": false,
          "internalType": "uint256",
          "name": "_timestamp",
          "type": "uint256"
        }
      ],
      "name": "sentTokens",
      "type": "event"
    },
    {
      "stateMutability": "payable",
      "type": "fallback"
    },
    {
      "inputs": [
        {
          "internalType": "address payable",
          "name": "_to",
          "type": "address"
        }
      ],
      "name": "faucet",
      "outputs": [],
      "stateMutability": "nonpayable",
      "type": "function"
    },
    {
      "inputs": [],
      "name": "getBalance",
      "outputs": [
        {
          "internalType": "uint256",
          "name": "",
          "type": "uint256"
        }
      ],
      "stateMutability": "view",
      "type": "function"
    },
    {
      "inputs": [],
      "name": "getTimeout",
      "outputs": [
        {
          "internalType": "uint256",
          "name": "",
          "type": "uint256"
        }
      ],
      "stateMutability": "view",
      "type": "function"
    },
    {
      "inputs": [],
      "name": "owner",
      "outputs": [
        {
          "internalType": "address",
          "name": "",
          "type": "address"
        }
      ],
      "stateMutability": "view",
      "type": "function"
    },
    {
      "inputs": [],
      "name": "renounceOwnership",
      "outputs": [],
      "stateMutability": "nonpayable",
      "type": "function"
    },
    {
      "inputs": [
        {
          "internalType": "uint256",
          "name": "_minutes",
          "type": "uint256"
        }
      ],
      "name": "setTimeout",
      "outputs": [],
      "stateMutability": "nonpayable",
      "type": "function"
    },
    {
      "inputs": [
        {
          "internalType": "address",
          "name": "newOwner",
          "type": "address"
        }
      ],
      "name": "transferOwnership",
      "outputs": [],
      "stateMutability": "nonpayable",
      "type": "function"
    },
    {
      "stateMutability": "payable",
      "type": "receive"
    }
  ],
  "bytecode": "0x60806040523480156200001157600080fd5b5060405162001032380380620010328339818101604052810190620000379190620001a9565b620000576200004b620000c660201b60201c565b620000ce60201b60201c565b80600160006101000a81548173ffffffffffffffffffffffffffffffffffffffff021916908373ffffffffffffffffffffffffffffffffffffffff160217905550670de0b6b3a7640000600281905550603c600381905550681043561a88293000006004819055505062000223565b600033905090565b60008060009054906101000a900473ffffffffffffffffffffffffffffffffffffffff169050816000806101000a81548173ffffffffffffffffffffffffffffffffffffffff021916908373ffffffffffffffffffffffffffffffffffffffff1602179055508173ffffffffffffffffffffffffffffffffffffffff168173ffffffffffffffffffffffffffffffffffffffff167f8be0079c531659141344cd1fd0a4f28419497f9722a3daafe3b4186f6b6457e060405160405180910390a35050565b600081519050620001a38162000209565b92915050565b600060208284031215620001bc57600080fd5b6000620001cc8482850162000192565b91505092915050565b6000620001e282620001e9565b9050919050565b600073ffffffffffffffffffffffffffffffffffffffff82169050919050565b6200021481620001d5565b81146200022057600080fd5b50565b610dff80620002336000396000f3fe6080604052600436106100745760003560e01c80638da5cb5b1161004e5780638da5cb5b146100ea578063b86d1d6314610115578063c58a34cc1461013e578063f2fde38b146101675761007b565b806312065fe01461007d5780633499ba95146100a8578063715018a6146100d35761007b565b3661007b57005b005b34801561008957600080fd5b50610092610190565b60405161009f9190610c0c565b60405180910390f35b3480156100b457600080fd5b506100bd610198565b6040516100ca9190610c0c565b60405180910390f35b3480156100df57600080fd5b506100e86101a2565b005b3480156100f657600080fd5b506100ff61022a565b60405161010c9190610b08565b60405180910390f35b34801561012157600080fd5b5061013c6004803603810190610137919061083f565b610253565b005b34801561014a57600080fd5b5061016560048036038101906101609190610868565b6104aa565b005b34801561017357600080fd5b5061018e60048036038101906101899190610816565b610530565b005b600047905090565b6000600354905090565b6101aa610628565b73ffffffffffffffffffffffffffffffffffffffff166101c861022a565b73ffffffffffffffffffffffffffffffffffffffff161461021e576040517f08c379a000000000000000000000000000000000000000000000000000000000815260040161021590610bcc565b60405180910390fd5b6102286000610630565b565b60008060009054906101000a900473ffffffffffffffffffffffffffffffffffffffff16905090565b600254471015610298576040517f08c379a000000000000000000000000000000000000000000000000000000000815260040161028f90610bec565b60405180910390fd5b603c6003546102a79190610c43565b426102b29190610c9d565b600560008373ffffffffffffffffffffffffffffffffffffffff1673ffffffffffffffffffffffffffffffffffffffff168152602001908152602001600020541115610333576040517f08c379a000000000000000000000000000000000000000000000000000000000815260040161032a90610b8c565b60405180910390fd5b61033c816106f4565b61037b576040517f08c379a000000000000000000000000000000000000000000000000000000000815260040161037290610bac565b60405180910390fd5b42600560008373ffffffffffffffffffffffffffffffffffffffff1673ffffffffffffffffffffffffffffffffffffffff1681526020019081526020016000208190555060008173ffffffffffffffffffffffffffffffffffffffff166002546040516103e790610af3565b60006040518083038185875af1925050503d8060008114610424576040519150601f19603f3d011682016040523d82523d6000602084013e610429565b606091505b505090508061046d576040517f08c379a000000000000000000000000000000000000000000000000000000000815260040161046490610b6c565b60405180910390fd5b7fabe2bfdbe3bd8def331233e8a1dc3dfa91327f2e994039e8d2dc8b72fbf2c470824260405161049e929190610b23565b60405180910390a15050565b6104b2610628565b73ffffffffffffffffffffffffffffffffffffffff166104d061022a565b73ffffffffffffffffffffffffffffffffffffffff1614610526576040517f08c379a000000000000000000000000000000000000000000000000000000000815260040161051d90610bcc565b60405180910390fd5b8060038190555050565b610538610628565b73ffffffffffffffffffffffffffffffffffffffff1661055661022a565b73ffffffffffffffffffffffffffffffffffffffff16146105ac576040517f08c379a00000000000000000000000000000000000000000000000000000000081526004016105a390610bcc565b60405180910390fd5b600073ffffffffffffffffffffffffffffffffffffffff168173ffffffffffffffffffffffffffffffffffffffff16141561061c576040517f08c379a000000000000000000000000000000000000000000000000000000000815260040161061390610b4c565b60405180910390fd5b61062581610630565b50565b600033905090565b60008060009054906101000a900473ffffffffffffffffffffffffffffffffffffffff169050816000806101000a81548173ffffffffffffffffffffffffffffffffffffffff021916908373ffffffffffffffffffffffffffffffffffffffff1602179055508173ffffffffffffffffffffffffffffffffffffffff168173ffffffffffffffffffffffffffffffffffffffff167f8be0079c531659141344cd1fd0a4f28419497f9722a3daafe3b4186f6b6457e060405160405180910390a35050565b600080600160009054906101000a900473ffffffffffffffffffffffffffffffffffffffff1690506004548173ffffffffffffffffffffffffffffffffffffffff166370a08231856040518263ffffffff1660e01b81526004016107589190610b08565b60206040518083038186803b15801561077057600080fd5b505afa158015610784573d6000803e3d6000fd5b505050506040513d601f19601f820116820180604052508101906107a89190610891565b106107b75760019150506107bd565b60009150505b919050565b6000813590506107d181610d84565b92915050565b6000813590506107e681610d9b565b92915050565b6000813590506107fb81610db2565b92915050565b60008151905061081081610db2565b92915050565b60006020828403121561082857600080fd5b6000610836848285016107c2565b91505092915050565b60006020828403121561085157600080fd5b600061085f848285016107d7565b91505092915050565b60006020828403121561087a57600080fd5b6000610888848285016107ec565b91505092915050565b6000602082840312156108a357600080fd5b60006108b184828501610801565b91505092915050565b6108c381610d1f565b82525050565b6108d281610cd1565b82525050565b60006108e5602683610c32565b91507f4f776e61626c653a206e6577206f776e657220697320746865207a65726f206160008301527f64647265737300000000000000000000000000000000000000000000000000006020830152604082019050919050565b600061094b601483610c32565b91507f4661696c656420746f2073656e642045746865720000000000000000000000006000830152602082019050919050565b600061098b602183610c32565b91507f546f6f204561726c7920666f7220416e6f74686572204661756365742044726f60008301527f70000000000000000000000000000000000000000000000000000000000000006020830152604082019050919050565b60006109f1602383610c32565b91507f596f7520446f204e6f74204861766520456e6f75676820455243323020746f6b60008301527f656e7300000000000000000000000000000000000000000000000000000000006020830152604082019050919050565b6000610a57602083610c32565b91507f4f776e61626c653a2063616c6c6572206973206e6f7420746865206f776e65726000830152602082019050919050565b6000610a97601983610c32565b91507f496e73756666696369656e74204661756365742046756e6473000000000000006000830152602082019050919050565b6000610ad7600083610c27565b9150600082019050919050565b610aed81610d15565b82525050565b6000610afe82610aca565b9150819050919050565b6000602082019050610b1d60008301846108c9565b92915050565b6000604082019050610b3860008301856108ba565b610b456020830184610ae4565b9392505050565b60006020820190508181036000830152610b65816108d8565b9050919050565b60006020820190508181036000830152610b858161093e565b9050919050565b60006020820190508181036000830152610ba58161097e565b9050919050565b60006020820190508181036000830152610bc5816109e4565b9050919050565b60006020820190508181036000830152610be581610a4a565b9050919050565b60006020820190508181036000830152610c0581610a8a565b9050919050565b6000602082019050610c216000830184610ae4565b92915050565b600081905092915050565b600082825260208201905092915050565b6000610c4e82610d15565b9150610c5983610d15565b9250817fffffffffffffffffffffffffffffffffffffffffffffffffffffffffffffffff0483118215151615610c9257610c91610d55565b5b828202905092915050565b6000610ca882610d15565b9150610cb383610d15565b925082821015610cc657610cc5610d55565b5b828203905092915050565b6000610cdc82610cf5565b9050919050565b6000610cee82610cf5565b9050919050565b600073ffffffffffffffffffffffffffffffffffffffff82169050919050565b6000819050919050565b6000610d2a82610d31565b9050919050565b6000610d3c82610d43565b9050919050565b6000610d4e82610cf5565b9050919050565b7f4e487b7100000000000000000000000000000000000000000000000000000000600052601160045260246000fd5b610d8d81610cd1565b8114610d9857600080fd5b50565b610da481610ce3565b8114610daf57600080fd5b50565b610dbb81610d15565b8114610dc657600080fd5b5056fea2646970667358221220b3f234cc7c193d8c5e65bc2ada83d3cddb38a7c349f28a1d1a8bd2e51305391b64736f6c63430008000033",
  "linkReferences": {},
  "deployedLinkReferences": {}
}