{
  "_format": "hh-sol-artifact-1",
  "contractName": "SchusterEtherFaucet",
  "sourceName": "contracts/SchusterEtherFaucet.sol",
  "abi": [
    {
      "inputs": [
        {
          "internalType": "address",
          "name": "_tokenAddress",
          "type": "address"
        },
        {
          "internalType": "uint256",
          "name": "_faucetDripBase",
          "type": "uint256"
        },
        {
          "internalType": "uint256",
          "name": "_faucetDripDecimal",
          "type": "uint256"
        },
        {
          "internalType": "uint256",
          "name": "_ERC20TokenMinimum",
          "type": "uint256"
        },
        {
          "internalType": "uint256",
          "name": "_timeout",
          "type": "uint256"
        }
      ],
      "stateMutability": "nonpayable",
      "type": "constructor"
    },
    {
      "anonymous": false,
      "inputs": [
        {
          "indexed": false,
          "internalType": "address",
          "name": "_user",
          "type": "address"
        },
        {
          "indexed": false,
          "internalType": "uint256",
          "name": "_timestamp",
          "type": "uint256"
        }
      ],
      "name": "sentTokens",
      "type": "event"
    },
    {
      "stateMutability": "payable",
      "type": "fallback"
    },
    {
      "inputs": [
        {
          "internalType": "address payable",
          "name": "_to",
          "type": "address"
        }
      ],
      "name": "faucet",
      "outputs": [],
      "stateMutability": "nonpayable",
      "type": "function"
    },
    {
      "inputs": [],
      "name": "getBalance",
      "outputs": [
        {
          "internalType": "uint256",
          "name": "",
          "type": "uint256"
        }
      ],
      "stateMutability": "view",
      "type": "function"
    },
    {
      "inputs": [],
      "name": "getTimeout",
      "outputs": [
        {
          "internalType": "uint256",
          "name": "",
          "type": "uint256"
        }
      ],
      "stateMutability": "view",
      "type": "function"
    },
    {
      "stateMutability": "payable",
      "type": "receive"
    }
  ],
  "bytecode": "0x60806040523480156200001157600080fd5b5060405162000ce738038062000ce78339818101604052810190620000379190620000f5565b846000806101000a81548173ffffffffffffffffffffffffffffffffffffffff021916908373ffffffffffffffffffffffffffffffffffffffff16021790555082600a620000869190620001d2565b846200009391906200030f565b600181905550670de0b6b3a764000082620000af91906200030f565b6003819055508060028190555050505050506200041e565b600081519050620000d881620003ea565b92915050565b600081519050620000ef8162000404565b92915050565b600080600080600060a086880312156200010e57600080fd5b60006200011e88828901620000c7565b95505060206200013188828901620000de565b94505060406200014488828901620000de565b93505060606200015788828901620000de565b92505060806200016a88828901620000de565b9150509295509295909350565b6000808291508390505b6001851115620001c957808604811115620001a157620001a0620003ae565b5b6001851615620001b15780820291505b8081029050620001c185620003dd565b945062000181565b94509492505050565b6000620001df82620003a4565b9150620001ec83620003a4565b92506200021b7fffffffffffffffffffffffffffffffffffffffffffffffffffffffffffffffff848462000223565b905092915050565b60008262000235576001905062000308565b8162000245576000905062000308565b81600181146200025e576002811462000269576200029f565b600191505062000308565b60ff8411156200027e576200027d620003ae565b5b8360020a915084821115620002985762000297620003ae565b5b5062000308565b5060208310610133831016604e8410600b8410161715620002d95782820a905083811115620002d357620002d2620003ae565b5b62000308565b620002e8848484600162000177565b92509050818404811115620003025762000301620003ae565b5b81810290505b9392505050565b60006200031c82620003a4565b91506200032983620003a4565b9250817fffffffffffffffffffffffffffffffffffffffffffffffffffffffffffffffff0483118215151615620003655762000364620003ae565b5b828202905092915050565b60006200037d8262000384565b9050919050565b600073ffffffffffffffffffffffffffffffffffffffff82169050919050565b6000819050919050565b7f4e487b7100000000000000000000000000000000000000000000000000000000600052601160045260246000fd5b60008160011c9050919050565b620003f58162000370565b81146200040157600080fd5b50565b6200040f81620003a4565b81146200041b57600080fd5b50565b6108b9806200042e6000396000f3fe6080604052600436106100385760003560e01c806312065fe0146100415780633499ba951461006c578063b86d1d63146100975761003f565b3661003f57005b005b34801561004d57600080fd5b506100566100c0565b60405161006391906106dd565b60405180910390f35b34801561007857600080fd5b506100816100c8565b60405161008e91906106dd565b60405180910390f35b3480156100a357600080fd5b506100be60048036038101906100b9919061041f565b6100d2565b005b600047905090565b6000600254905090565b600154471015610117576040517f08c379a000000000000000000000000000000000000000000000000000000000815260040161010e906106bd565b60405180910390fd5b603c6002546101269190610714565b42610131919061076e565b600460008373ffffffffffffffffffffffffffffffffffffffff1673ffffffffffffffffffffffffffffffffffffffff1681526020019081526020016000205411156101b2576040517f08c379a00000000000000000000000000000000000000000000000000000000081526004016101a99061067d565b60405180910390fd5b6101bb81610329565b6101fa576040517f08c379a00000000000000000000000000000000000000000000000000000000081526004016101f19061069d565b60405180910390fd5b42600460008373ffffffffffffffffffffffffffffffffffffffff1673ffffffffffffffffffffffffffffffffffffffff1681526020019081526020016000208190555060008173ffffffffffffffffffffffffffffffffffffffff1660015460405161026690610604565b60006040518083038185875af1925050503d80600081146102a3576040519150601f19603f3d011682016040523d82523d6000602084013e6102a8565b606091505b50509050806102ec576040517f08c379a00000000000000000000000000000000000000000000000000000000081526004016102e39061065d565b60405180910390fd5b7fabe2bfdbe3bd8def331233e8a1dc3dfa91327f2e994039e8d2dc8b72fbf2c470824260405161031d929190610634565b60405180910390a15050565b60008060008054906101000a900473ffffffffffffffffffffffffffffffffffffffff1690506003548173ffffffffffffffffffffffffffffffffffffffff166370a08231856040518263ffffffff1660e01b815260040161038b9190610619565b60206040518083038186803b1580156103a357600080fd5b505afa1580156103b7573d6000803e3d6000fd5b505050506040513d601f19601f820116820180604052508101906103db9190610448565b106103ea5760019150506103f0565b60009150505b919050565b60008135905061040481610855565b92915050565b6000815190506104198161086c565b92915050565b60006020828403121561043157600080fd5b600061043f848285016103f5565b91505092915050565b60006020828403121561045a57600080fd5b60006104688482850161040a565b91505092915050565b61047a816107f0565b82525050565b610489816107a2565b82525050565b600061049c601483610703565b91507f4661696c656420746f2073656e642045746865720000000000000000000000006000830152602082019050919050565b60006104dc602183610703565b91507f546f6f204561726c7920666f7220416e6f74686572204661756365742044726f60008301527f70000000000000000000000000000000000000000000000000000000000000006020830152604082019050919050565b6000610542602383610703565b91507f596f7520446f204e6f74204861766520456e6f75676820455243323020746f6b60008301527f656e7300000000000000000000000000000000000000000000000000000000006020830152604082019050919050565b60006105a8601983610703565b91507f496e73756666696369656e74204661756365742046756e6473000000000000006000830152602082019050919050565b60006105e86000836106f8565b9150600082019050919050565b6105fe816107e6565b82525050565b600061060f826105db565b9150819050919050565b600060208201905061062e6000830184610480565b92915050565b60006040820190506106496000830185610471565b61065660208301846105f5565b9392505050565b600060208201905081810360008301526106768161048f565b9050919050565b60006020820190508181036000830152610696816104cf565b9050919050565b600060208201905081810360008301526106b681610535565b9050919050565b600060208201905081810360008301526106d68161059b565b9050919050565b60006020820190506106f260008301846105f5565b92915050565b600081905092915050565b600082825260208201905092915050565b600061071f826107e6565b915061072a836107e6565b9250817fffffffffffffffffffffffffffffffffffffffffffffffffffffffffffffffff048311821515161561076357610762610826565b5b828202905092915050565b6000610779826107e6565b9150610784836107e6565b92508282101561079757610796610826565b5b828203905092915050565b60006107ad826107c6565b9050919050565b60006107bf826107c6565b9050919050565b600073ffffffffffffffffffffffffffffffffffffffff82169050919050565b6000819050919050565b60006107fb82610802565b9050919050565b600061080d82610814565b9050919050565b600061081f826107c6565b9050919050565b7f4e487b7100000000000000000000000000000000000000000000000000000000600052601160045260246000fd5b61085e816107b4565b811461086957600080fd5b50565b610875816107e6565b811461088057600080fd5b5056fea26469706673582212200ba140cacb2554dc8aa265d8e9ecb8d88331c5f3aa3905b9023dbf9dcd90d05d64736f6c63430008000033",
  "linkReferences": {},
  "deployedLinkReferences": {}
}