{
  "_format": "hh-sol-artifact-1",
  "contractName": "SchusterEtherFaucet",
  "sourceName": "contracts/SchusterEtherFaucet.sol",
  "abi": [
    {
      "inputs": [
        {
          "internalType": "address",
          "name": "_ERC20TokenAddress",
          "type": "address"
        },
        {
          "internalType": "uint256",
          "name": "_faucetDripBase",
          "type": "uint256"
        },
        {
          "internalType": "uint256",
          "name": "_faucetDripDecimal",
          "type": "uint256"
        },
        {
          "internalType": "uint256",
          "name": "_ERC20TokenMinimum",
          "type": "uint256"
        },
        {
          "internalType": "uint256",
          "name": "_timeout",
          "type": "uint256"
        }
      ],
      "stateMutability": "nonpayable",
      "type": "constructor"
    },
    {
      "anonymous": false,
      "inputs": [
        {
          "indexed": false,
          "internalType": "address",
          "name": "_user",
          "type": "address"
        },
        {
          "indexed": false,
          "internalType": "uint256",
          "name": "_timestamp",
          "type": "uint256"
        }
      ],
      "name": "sentTokens",
      "type": "event"
    },
    {
      "stateMutability": "payable",
      "type": "fallback"
    },
    {
      "inputs": [
        {
          "internalType": "address payable",
          "name": "_to",
          "type": "address"
        }
      ],
      "name": "faucet",
      "outputs": [],
      "stateMutability": "nonpayable",
      "type": "function"
    },
    {
      "inputs": [
        {
          "internalType": "address",
          "name": "_user",
          "type": "address"
        }
      ],
      "name": "getAddressTimeout",
      "outputs": [
        {
          "internalType": "uint256",
          "name": "",
          "type": "uint256"
        }
      ],
      "stateMutability": "view",
      "type": "function"
    },
    {
      "inputs": [],
      "name": "getBalance",
      "outputs": [
        {
          "internalType": "uint256",
          "name": "",
          "type": "uint256"
        }
      ],
      "stateMutability": "view",
      "type": "function"
    },
    {
      "inputs": [],
      "name": "getERC20TokenAddress",
      "outputs": [
        {
          "internalType": "address",
          "name": "",
          "type": "address"
        }
      ],
      "stateMutability": "view",
      "type": "function"
    },
    {
      "inputs": [],
      "name": "getERC20TokenMinimum",
      "outputs": [
        {
          "internalType": "uint256",
          "name": "",
          "type": "uint256"
        }
      ],
      "stateMutability": "view",
      "type": "function"
    },
    {
      "inputs": [],
      "name": "getFaucetDripAmount",
      "outputs": [
        {
          "internalType": "uint256",
          "name": "",
          "type": "uint256"
        }
      ],
      "stateMutability": "view",
      "type": "function"
    },
    {
      "inputs": [],
      "name": "getTimeout",
      "outputs": [
        {
          "internalType": "uint256",
          "name": "",
          "type": "uint256"
        }
      ],
      "stateMutability": "view",
      "type": "function"
    },
    {
      "stateMutability": "payable",
      "type": "receive"
    }
  ],
  "bytecode": "0x60806040523480156200001157600080fd5b5060405162000ebc38038062000ebc8339818101604052810190620000379190620000f5565b846000806101000a81548173ffffffffffffffffffffffffffffffffffffffff021916908373ffffffffffffffffffffffffffffffffffffffff16021790555082600a620000869190620001d2565b846200009391906200030f565b600181905550670de0b6b3a764000082620000af91906200030f565b6003819055508060028190555050505050506200041e565b600081519050620000d881620003ea565b92915050565b600081519050620000ef8162000404565b92915050565b600080600080600060a086880312156200010e57600080fd5b60006200011e88828901620000c7565b95505060206200013188828901620000de565b94505060406200014488828901620000de565b93505060606200015788828901620000de565b92505060806200016a88828901620000de565b9150509295509295909350565b6000808291508390505b6001851115620001c957808604811115620001a157620001a0620003ae565b5b6001851615620001b15780820291505b8081029050620001c185620003dd565b945062000181565b94509492505050565b6000620001df82620003a4565b9150620001ec83620003a4565b92506200021b7fffffffffffffffffffffffffffffffffffffffffffffffffffffffffffffffff848462000223565b905092915050565b60008262000235576001905062000308565b8162000245576000905062000308565b81600181146200025e576002811462000269576200029f565b600191505062000308565b60ff8411156200027e576200027d620003ae565b5b8360020a915084821115620002985762000297620003ae565b5b5062000308565b5060208310610133831016604e8410600b8410161715620002d95782820a905083811115620002d357620002d2620003ae565b5b62000308565b620002e8848484600162000177565b92509050818404811115620003025762000301620003ae565b5b81810290505b9392505050565b60006200031c82620003a4565b91506200032983620003a4565b9250817fffffffffffffffffffffffffffffffffffffffffffffffffffffffffffffffff0483118215151615620003655762000364620003ae565b5b828202905092915050565b60006200037d8262000384565b9050919050565b600073ffffffffffffffffffffffffffffffffffffffff82169050919050565b6000819050919050565b7f4e487b7100000000000000000000000000000000000000000000000000000000600052601160045260246000fd5b60008160011c9050919050565b620003f58162000370565b81146200040157600080fd5b50565b6200040f81620003a4565b81146200041b57600080fd5b50565b610a8e806200042e6000396000f3fe6080604052600436106100745760003560e01c8063624aa0fd1161004e578063624aa0fd14610110578063b86d1d631461013b578063cbdc564d14610164578063edb69ebb1461018f5761007b565b806312065fe01461007d57806319d2d320146100a85780633499ba95146100e55761007b565b3661007b57005b005b34801561008957600080fd5b506100926101ba565b60405161009f919061089b565b60405180910390f35b3480156100b457600080fd5b506100cf60048036038101906100ca91906105b4565b6101c2565b6040516100dc919061089b565b60405180910390f35b3480156100f157600080fd5b506100fa61020b565b604051610107919061089b565b60405180910390f35b34801561011c57600080fd5b50610125610215565b60405161013291906107d7565b60405180910390f35b34801561014757600080fd5b50610162600480360381019061015d91906105dd565b61023e565b005b34801561017057600080fd5b50610179610495565b604051610186919061089b565b60405180910390f35b34801561019b57600080fd5b506101a461049f565b6040516101b1919061089b565b60405180910390f35b600047905090565b6000600460008373ffffffffffffffffffffffffffffffffffffffff1673ffffffffffffffffffffffffffffffffffffffff168152602001908152602001600020549050919050565b6000600254905090565b60008060009054906101000a900473ffffffffffffffffffffffffffffffffffffffff16905090565b600154471015610283576040517f08c379a000000000000000000000000000000000000000000000000000000000815260040161027a9061087b565b60405180910390fd5b603c60025461029291906108d2565b4261029d919061092c565b600460008373ffffffffffffffffffffffffffffffffffffffff1673ffffffffffffffffffffffffffffffffffffffff16815260200190815260200160002054111561031e576040517f08c379a00000000000000000000000000000000000000000000000000000000081526004016103159061083b565b60405180910390fd5b610327816104a9565b610366576040517f08c379a000000000000000000000000000000000000000000000000000000000815260040161035d9061085b565b60405180910390fd5b42600460008373ffffffffffffffffffffffffffffffffffffffff1673ffffffffffffffffffffffffffffffffffffffff1681526020019081526020016000208190555060008173ffffffffffffffffffffffffffffffffffffffff166001546040516103d2906107c2565b60006040518083038185875af1925050503d806000811461040f576040519150601f19603f3d011682016040523d82523d6000602084013e610414565b606091505b5050905080610458576040517f08c379a000000000000000000000000000000000000000000000000000000000815260040161044f9061081b565b60405180910390fd5b7fabe2bfdbe3bd8def331233e8a1dc3dfa91327f2e994039e8d2dc8b72fbf2c47082426040516104899291906107f2565b60405180910390a15050565b6000600354905090565b6000600154905090565b60008060008054906101000a900473ffffffffffffffffffffffffffffffffffffffff1690506003548173ffffffffffffffffffffffffffffffffffffffff166370a08231856040518263ffffffff1660e01b815260040161050b91906107d7565b60206040518083038186803b15801561052357600080fd5b505afa158015610537573d6000803e3d6000fd5b505050506040513d601f19601f8201168201806040525081019061055b9190610606565b1061056a576001915050610570565b60009150505b919050565b60008135905061058481610a13565b92915050565b60008135905061059981610a2a565b92915050565b6000815190506105ae81610a41565b92915050565b6000602082840312156105c657600080fd5b60006105d484828501610575565b91505092915050565b6000602082840312156105ef57600080fd5b60006105fd8482850161058a565b91505092915050565b60006020828403121561061857600080fd5b60006106268482850161059f565b91505092915050565b610638816109ae565b82525050565b61064781610960565b82525050565b600061065a6014836108c1565b91507f4661696c656420746f2073656e642045746865720000000000000000000000006000830152602082019050919050565b600061069a6021836108c1565b91507f546f6f204561726c7920666f7220416e6f74686572204661756365742044726f60008301527f70000000000000000000000000000000000000000000000000000000000000006020830152604082019050919050565b60006107006023836108c1565b91507f596f7520446f204e6f74204861766520456e6f75676820455243323020746f6b60008301527f656e7300000000000000000000000000000000000000000000000000000000006020830152604082019050919050565b60006107666019836108c1565b91507f496e73756666696369656e74204661756365742046756e6473000000000000006000830152602082019050919050565b60006107a66000836108b6565b9150600082019050919050565b6107bc816109a4565b82525050565b60006107cd82610799565b9150819050919050565b60006020820190506107ec600083018461063e565b92915050565b6000604082019050610807600083018561062f565b61081460208301846107b3565b9392505050565b600060208201905081810360008301526108348161064d565b9050919050565b600060208201905081810360008301526108548161068d565b9050919050565b60006020820190508181036000830152610874816106f3565b9050919050565b6000602082019050818103600083015261089481610759565b9050919050565b60006020820190506108b060008301846107b3565b92915050565b600081905092915050565b600082825260208201905092915050565b60006108dd826109a4565b91506108e8836109a4565b9250817fffffffffffffffffffffffffffffffffffffffffffffffffffffffffffffffff0483118215151615610921576109206109e4565b5b828202905092915050565b6000610937826109a4565b9150610942836109a4565b925082821015610955576109546109e4565b5b828203905092915050565b600061096b82610984565b9050919050565b600061097d82610984565b9050919050565b600073ffffffffffffffffffffffffffffffffffffffff82169050919050565b6000819050919050565b60006109b9826109c0565b9050919050565b60006109cb826109d2565b9050919050565b60006109dd82610984565b9050919050565b7f4e487b7100000000000000000000000000000000000000000000000000000000600052601160045260246000fd5b610a1c81610960565b8114610a2757600080fd5b50565b610a3381610972565b8114610a3e57600080fd5b50565b610a4a816109a4565b8114610a5557600080fd5b5056fea2646970667358221220e9ec5cdf75b2ee64ca2a880df4e1b8b4382ba51da9f3cae8402193003eca2c1664736f6c63430008000033",
  "linkReferences": {},
  "deployedLinkReferences": {}
}