{
  "_format": "hh-sol-artifact-1",
  "contractName": "SchusterEtherFaucet",
  "sourceName": "contracts/SchusterEtherFaucet.sol",
  "abi": [
    {
      "inputs": [
        {
          "internalType": "address",
          "name": "_ERC20TokenAddress",
          "type": "address"
        },
        {
          "internalType": "uint256",
          "name": "_faucetDripBase",
          "type": "uint256"
        },
        {
          "internalType": "uint256",
          "name": "_faucetDripDecimal",
          "type": "uint256"
        },
        {
          "internalType": "uint256",
          "name": "_ERC20TokenMinimum",
          "type": "uint256"
        },
        {
          "internalType": "uint256",
          "name": "_timeout",
          "type": "uint256"
        }
      ],
      "stateMutability": "nonpayable",
      "type": "constructor"
    },
    {
      "anonymous": false,
      "inputs": [
        {
          "indexed": true,
          "internalType": "address",
          "name": "previousOwner",
          "type": "address"
        },
        {
          "indexed": true,
          "internalType": "address",
          "name": "newOwner",
          "type": "address"
        }
      ],
      "name": "OwnershipTransferred",
      "type": "event"
    },
    {
      "anonymous": false,
      "inputs": [
        {
          "indexed": true,
          "internalType": "address",
          "name": "_runner",
          "type": "address"
        }
      ],
      "name": "RunnerAdded",
      "type": "event"
    },
    {
      "anonymous": false,
      "inputs": [
        {
          "indexed": true,
          "internalType": "address",
          "name": "_runner",
          "type": "address"
        }
      ],
      "name": "RunnerRemoved",
      "type": "event"
    },
    {
      "anonymous": false,
      "inputs": [
        {
          "indexed": true,
          "internalType": "address",
          "name": "_user",
          "type": "address"
        },
        {
          "indexed": false,
          "internalType": "uint256",
          "name": "_timestamp",
          "type": "uint256"
        }
      ],
      "name": "sentTokens",
      "type": "event"
    },
    {
      "stateMutability": "payable",
      "type": "fallback"
    },
    {
      "inputs": [
        {
          "internalType": "address payable",
          "name": "_to",
          "type": "address"
        }
      ],
      "name": "faucet",
      "outputs": [],
      "stateMutability": "nonpayable",
      "type": "function"
    },
    {
      "inputs": [
        {
          "internalType": "address",
          "name": "_user",
          "type": "address"
        }
      ],
      "name": "getAddressTimeout",
      "outputs": [
        {
          "internalType": "uint256",
          "name": "",
          "type": "uint256"
        }
      ],
      "stateMutability": "view",
      "type": "function"
    },
    {
      "inputs": [],
      "name": "getBalance",
      "outputs": [
        {
          "internalType": "uint256",
          "name": "",
          "type": "uint256"
        }
      ],
      "stateMutability": "view",
      "type": "function"
    },
    {
      "inputs": [],
      "name": "getERC20TokenAddress",
      "outputs": [
        {
          "internalType": "address",
          "name": "",
          "type": "address"
        }
      ],
      "stateMutability": "view",
      "type": "function"
    },
    {
      "inputs": [],
      "name": "getERC20TokenMinimum",
      "outputs": [
        {
          "internalType": "uint256",
          "name": "",
          "type": "uint256"
        }
      ],
      "stateMutability": "view",
      "type": "function"
    },
    {
      "inputs": [],
      "name": "getFaucetDripAmount",
      "outputs": [
        {
          "internalType": "uint256",
          "name": "",
          "type": "uint256"
        }
      ],
      "stateMutability": "view",
      "type": "function"
    },
    {
      "inputs": [],
      "name": "getTimeout",
      "outputs": [
        {
          "internalType": "uint256",
          "name": "",
          "type": "uint256"
        }
      ],
      "stateMutability": "view",
      "type": "function"
    },
    {
      "inputs": [],
      "name": "owner",
      "outputs": [
        {
          "internalType": "address",
          "name": "",
          "type": "address"
        }
      ],
      "stateMutability": "view",
      "type": "function"
    },
    {
      "inputs": [
        {
          "internalType": "address",
          "name": "_runner",
          "type": "address"
        }
      ],
      "name": "removeRunner",
      "outputs": [],
      "stateMutability": "nonpayable",
      "type": "function"
    },
    {
      "inputs": [],
      "name": "renounceOwnership",
      "outputs": [],
      "stateMutability": "nonpayable",
      "type": "function"
    },
    {
      "inputs": [
        {
          "internalType": "address",
          "name": "newOwner",
          "type": "address"
        }
      ],
      "name": "transferOwnership",
      "outputs": [],
      "stateMutability": "nonpayable",
      "type": "function"
    },
    {
      "inputs": [
        {
          "internalType": "address",
          "name": "_runner",
          "type": "address"
        }
      ],
      "name": "verifyRunner",
      "outputs": [],
      "stateMutability": "nonpayable",
      "type": "function"
    },
    {
      "stateMutability": "payable",
      "type": "receive"
    }
  ],
  "bytecode": "0x60806040523480156200001157600080fd5b5060405162001912380380620019128339818101604052810190620000379190620001e2565b620000576200004b620000e860201b60201c565b620000f060201b60201c565b84600260006101000a81548173ffffffffffffffffffffffffffffffffffffffff021916908373ffffffffffffffffffffffffffffffffffffffff16021790555082600a620000a79190620002bf565b84620000b49190620003fc565b600381905550670de0b6b3a764000082620000d09190620003fc565b6005819055508060048190555050505050506200050b565b600033905090565b60008060009054906101000a900473ffffffffffffffffffffffffffffffffffffffff169050816000806101000a81548173ffffffffffffffffffffffffffffffffffffffff021916908373ffffffffffffffffffffffffffffffffffffffff1602179055508173ffffffffffffffffffffffffffffffffffffffff168173ffffffffffffffffffffffffffffffffffffffff167f8be0079c531659141344cd1fd0a4f28419497f9722a3daafe3b4186f6b6457e060405160405180910390a35050565b600081519050620001c581620004d7565b92915050565b600081519050620001dc81620004f1565b92915050565b600080600080600060a08688031215620001fb57600080fd5b60006200020b88828901620001b4565b95505060206200021e88828901620001cb565b94505060406200023188828901620001cb565b93505060606200024488828901620001cb565b92505060806200025788828901620001cb565b9150509295509295909350565b6000808291508390505b6001851115620002b6578086048111156200028e576200028d6200049b565b5b60018516156200029e5780820291505b8081029050620002ae85620004ca565b94506200026e565b94509492505050565b6000620002cc8262000491565b9150620002d98362000491565b9250620003087fffffffffffffffffffffffffffffffffffffffffffffffffffffffffffffffff848462000310565b905092915050565b600082620003225760019050620003f5565b81620003325760009050620003f5565b81600181146200034b576002811462000356576200038c565b6001915050620003f5565b60ff8411156200036b576200036a6200049b565b5b8360020a9150848211156200038557620003846200049b565b5b50620003f5565b5060208310610133831016604e8410600b8410161715620003c65782820a905083811115620003c057620003bf6200049b565b5b620003f5565b620003d5848484600162000264565b92509050818404811115620003ef57620003ee6200049b565b5b81810290505b9392505050565b6000620004098262000491565b9150620004168362000491565b9250817fffffffffffffffffffffffffffffffffffffffffffffffffffffffffffffffff04831182151516156200045257620004516200049b565b5b828202905092915050565b60006200046a8262000471565b9050919050565b600073ffffffffffffffffffffffffffffffffffffffff82169050919050565b6000819050919050565b7f4e487b7100000000000000000000000000000000000000000000000000000000600052601160045260246000fd5b60008160011c9050919050565b620004e2816200045d565b8114620004ee57600080fd5b50565b620004fc8162000491565b81146200050857600080fd5b50565b6113f7806200051b6000396000f3fe6080604052600436106100ab5760003560e01c80638da5cb5b116100645780638da5cb5b146101b2578063b86d1d63146101dd578063b91d82ba14610206578063cbdc564d1461022f578063edb69ebb1461025a578063f2fde38b14610285576100b2565b806312065fe0146100b457806319d2d320146100df5780633499ba951461011c578063624aa0fd14610147578063715018a614610172578063818aa4df14610189576100b2565b366100b257005b005b3480156100c057600080fd5b506100c96102ae565b6040516100d69190611054565b60405180910390f35b3480156100eb57600080fd5b5061010660048036038101906101019190610d0d565b6102b6565b6040516101139190611054565b60405180910390f35b34801561012857600080fd5b506101316102ff565b60405161013e9190611054565b60405180910390f35b34801561015357600080fd5b5061015c610309565b6040516101699190610f19565b60405180910390f35b34801561017e57600080fd5b50610187610333565b005b34801561019557600080fd5b506101b060048036038101906101ab9190610d0d565b6103bb565b005b3480156101be57600080fd5b506101c7610561565b6040516101d49190610f19565b60405180910390f35b3480156101e957600080fd5b5061020460048036038101906101ff9190610d36565b61058a565b005b34801561021257600080fd5b5061022d60048036038101906102289190610d0d565b610882565b005b34801561023b57600080fd5b50610244610a28565b6040516102519190611054565b60405180910390f35b34801561026657600080fd5b5061026f610a32565b60405161027c9190611054565b60405180910390f35b34801561029157600080fd5b506102ac60048036038101906102a79190610d0d565b610a3c565b005b600047905090565b6000600660008373ffffffffffffffffffffffffffffffffffffffff1673ffffffffffffffffffffffffffffffffffffffff168152602001908152602001600020549050919050565b6000600454905090565b6000600260009054906101000a900473ffffffffffffffffffffffffffffffffffffffff16905090565b61033b610b34565b73ffffffffffffffffffffffffffffffffffffffff16610359610561565b73ffffffffffffffffffffffffffffffffffffffff16146103af576040517f08c379a00000000000000000000000000000000000000000000000000000000081526004016103a690611014565b60405180910390fd5b6103b96000610b3c565b565b6103c3610b34565b73ffffffffffffffffffffffffffffffffffffffff166103e1610561565b73ffffffffffffffffffffffffffffffffffffffff1614610437576040517f08c379a000000000000000000000000000000000000000000000000000000000815260040161042e90611014565b60405180910390fd5b600160008273ffffffffffffffffffffffffffffffffffffffff1673ffffffffffffffffffffffffffffffffffffffff16815260200190815260200160002060009054906101000a900460ff166104c3576040517f08c379a00000000000000000000000000000000000000000000000000000000081526004016104ba90610f34565b60405180910390fd5b6000600160008373ffffffffffffffffffffffffffffffffffffffff1673ffffffffffffffffffffffffffffffffffffffff16815260200190815260200160002060006101000a81548160ff0219169083151502179055508073ffffffffffffffffffffffffffffffffffffffff167fb50d2f20ab76e82fe675d3130121dd7b78ea1eb3a9c0e15075cd423e0671d65d60405160405180910390a250565b60008060009054906101000a900473ffffffffffffffffffffffffffffffffffffffff16905090565b600160003373ffffffffffffffffffffffffffffffffffffffff1673ffffffffffffffffffffffffffffffffffffffff16815260200190815260200160002060009054906101000a900460ff16610616576040517f08c379a000000000000000000000000000000000000000000000000000000000815260040161060d90610ff4565b60405180910390fd5b60035447101561065b576040517f08c379a000000000000000000000000000000000000000000000000000000000815260040161065290611034565b60405180910390fd5b603c60045461066a919061108b565b4261067591906110e5565b600660008373ffffffffffffffffffffffffffffffffffffffff1673ffffffffffffffffffffffffffffffffffffffff1681526020019081526020016000205411156106f6576040517f08c379a00000000000000000000000000000000000000000000000000000000081526004016106ed90610fb4565b60405180910390fd5b6106ff81610c00565b61073e576040517f08c379a000000000000000000000000000000000000000000000000000000000815260040161073590610fd4565b60405180910390fd5b42600660008373ffffffffffffffffffffffffffffffffffffffff1673ffffffffffffffffffffffffffffffffffffffff1681526020019081526020016000208190555060008173ffffffffffffffffffffffffffffffffffffffff166003546040516107aa90610f04565b60006040518083038185875af1925050503d80600081146107e7576040519150601f19603f3d011682016040523d82523d6000602084013e6107ec565b606091505b5050905080610830576040517f08c379a000000000000000000000000000000000000000000000000000000000815260040161082790610f94565b60405180910390fd5b8173ffffffffffffffffffffffffffffffffffffffff167fabe2bfdbe3bd8def331233e8a1dc3dfa91327f2e994039e8d2dc8b72fbf2c470426040516108769190611054565b60405180910390a25050565b61088a610b34565b73ffffffffffffffffffffffffffffffffffffffff166108a8610561565b73ffffffffffffffffffffffffffffffffffffffff16146108fe576040517f08c379a00000000000000000000000000000000000000000000000000000000081526004016108f590611014565b60405180910390fd5b600160008273ffffffffffffffffffffffffffffffffffffffff1673ffffffffffffffffffffffffffffffffffffffff16815260200190815260200160002060009054906101000a900460ff161561098b576040517f08c379a000000000000000000000000000000000000000000000000000000000815260040161098290610f54565b60405180910390fd5b60018060008373ffffffffffffffffffffffffffffffffffffffff1673ffffffffffffffffffffffffffffffffffffffff16815260200190815260200160002060006101000a81548160ff0219169083151502179055508073ffffffffffffffffffffffffffffffffffffffff167f4d9d0977667b1db25ee3cf7bf49a7da1dc6e1ad3193cc78270ac0b5706f47f5a60405160405180910390a250565b6000600554905090565b6000600354905090565b610a44610b34565b73ffffffffffffffffffffffffffffffffffffffff16610a62610561565b73ffffffffffffffffffffffffffffffffffffffff1614610ab8576040517f08c379a0000000000000000000000000000000000000000000000000000000008152600401610aaf90611014565b60405180910390fd5b600073ffffffffffffffffffffffffffffffffffffffff168173ffffffffffffffffffffffffffffffffffffffff161415610b28576040517f08c379a0000000000000000000000000000000000000000000000000000000008152600401610b1f90610f74565b60405180910390fd5b610b3181610b3c565b50565b600033905090565b60008060009054906101000a900473ffffffffffffffffffffffffffffffffffffffff169050816000806101000a81548173ffffffffffffffffffffffffffffffffffffffff021916908373ffffffffffffffffffffffffffffffffffffffff1602179055508173ffffffffffffffffffffffffffffffffffffffff168173ffffffffffffffffffffffffffffffffffffffff167f8be0079c531659141344cd1fd0a4f28419497f9722a3daafe3b4186f6b6457e060405160405180910390a35050565b600080600260009054906101000a900473ffffffffffffffffffffffffffffffffffffffff1690506005548173ffffffffffffffffffffffffffffffffffffffff166370a08231856040518263ffffffff1660e01b8152600401610c649190610f19565b60206040518083038186803b158015610c7c57600080fd5b505afa158015610c90573d6000803e3d6000fd5b505050506040513d601f19601f82011682018060405250810190610cb49190610d5f565b10610cc3576001915050610cc9565b60009150505b919050565b600081359050610cdd8161137c565b92915050565b600081359050610cf281611393565b92915050565b600081519050610d07816113aa565b92915050565b600060208284031215610d1f57600080fd5b6000610d2d84828501610cce565b91505092915050565b600060208284031215610d4857600080fd5b6000610d5684828501610ce3565b91505092915050565b600060208284031215610d7157600080fd5b6000610d7f84828501610cf8565b91505092915050565b610d9181611119565b82525050565b6000610da460138361107a565b9150610daf82611196565b602082019050919050565b6000610dc760178361107a565b9150610dd2826111bf565b602082019050919050565b6000610dea60268361107a565b9150610df5826111e8565b604082019050919050565b6000610e0d60148361107a565b9150610e1882611237565b602082019050919050565b6000610e3060218361107a565b9150610e3b82611260565b604082019050919050565b6000610e5360238361107a565b9150610e5e826112af565b604082019050919050565b6000610e76601a8361107a565b9150610e81826112fe565b602082019050919050565b6000610e9960208361107a565b9150610ea482611327565b602082019050919050565b6000610ebc60198361107a565b9150610ec782611350565b602082019050919050565b6000610edf60008361106f565b9150610eea82611379565b600082019050919050565b610efe8161115d565b82525050565b6000610f0f82610ed2565b9150819050919050565b6000602082019050610f2e6000830184610d88565b92915050565b60006020820190508181036000830152610f4d81610d97565b9050919050565b60006020820190508181036000830152610f6d81610dba565b9050919050565b60006020820190508181036000830152610f8d81610ddd565b9050919050565b60006020820190508181036000830152610fad81610e00565b9050919050565b60006020820190508181036000830152610fcd81610e23565b9050919050565b60006020820190508181036000830152610fed81610e46565b9050919050565b6000602082019050818103600083015261100d81610e69565b9050919050565b6000602082019050818103600083015261102d81610e8c565b9050919050565b6000602082019050818103600083015261104d81610eaf565b9050919050565b60006020820190506110696000830184610ef5565b92915050565b600081905092915050565b600082825260208201905092915050565b60006110968261115d565b91506110a18361115d565b9250817fffffffffffffffffffffffffffffffffffffffffffffffffffffffffffffffff04831182151516156110da576110d9611167565b5b828202905092915050565b60006110f08261115d565b91506110fb8361115d565b92508282101561110e5761110d611167565b5b828203905092915050565b60006111248261113d565b9050919050565b60006111368261113d565b9050919050565b600073ffffffffffffffffffffffffffffffffffffffff82169050919050565b6000819050919050565b7f4e487b7100000000000000000000000000000000000000000000000000000000600052601160045260246000fd5b7f52756e6e6572204e6f7420566572696669656400000000000000000000000000600082015250565b7f52756e6e657220416c7265616479205665726966696564000000000000000000600082015250565b7f4f776e61626c653a206e6577206f776e657220697320746865207a65726f206160008201527f6464726573730000000000000000000000000000000000000000000000000000602082015250565b7f4661696c656420746f2073656e64204574686572000000000000000000000000600082015250565b7f546f6f204561726c7920666f7220416e6f74686572204661756365742044726f60008201527f7000000000000000000000000000000000000000000000000000000000000000602082015250565b7f596f7520446f204e6f74204861766520456e6f75676820455243323020746f6b60008201527f656e730000000000000000000000000000000000000000000000000000000000602082015250565b7f4e6f7420566572696669656420746f2052756e20466175636574000000000000600082015250565b7f4f776e61626c653a2063616c6c6572206973206e6f7420746865206f776e6572600082015250565b7f496e73756666696369656e74204661756365742046756e647300000000000000600082015250565b50565b61138581611119565b811461139057600080fd5b50565b61139c8161112b565b81146113a757600080fd5b50565b6113b38161115d565b81146113be57600080fd5b5056fea26469706673582212206615f427176a776983a2399817d4dd7bccff613f10232de7567951cc3b32211764736f6c63430008040033",
  "linkReferences": {},
  "deployedLinkReferences": {}
}