{
  "_format": "hh-sol-artifact-1",
  "contractName": "SchusterEtherFaucet",
  "sourceName": "contracts/SchusterEtherFaucet.sol",
  "abi": [
    {
      "inputs": [
        {
          "internalType": "address",
          "name": "_ERC20TokenAddress",
          "type": "address"
        },
        {
          "internalType": "uint256",
          "name": "_faucetDripBase",
          "type": "uint256"
        },
        {
          "internalType": "uint256",
          "name": "_faucetDripDecimal",
          "type": "uint256"
        },
        {
          "internalType": "uint256",
          "name": "_ERC20TokenMinimum",
          "type": "uint256"
        },
        {
          "internalType": "uint256",
          "name": "_timeout",
          "type": "uint256"
        }
      ],
      "stateMutability": "nonpayable",
      "type": "constructor"
    },
    {
      "anonymous": false,
      "inputs": [
        {
          "indexed": true,
          "internalType": "address",
          "name": "previousOwner",
          "type": "address"
        },
        {
          "indexed": true,
          "internalType": "address",
          "name": "newOwner",
          "type": "address"
        }
      ],
      "name": "OwnershipTransferred",
      "type": "event"
    },
    {
      "anonymous": false,
      "inputs": [
        {
          "indexed": true,
          "internalType": "address",
          "name": "_runner",
          "type": "address"
        }
      ],
      "name": "RunnerAdded",
      "type": "event"
    },
    {
      "anonymous": false,
      "inputs": [
        {
          "indexed": true,
          "internalType": "address",
          "name": "_runner",
          "type": "address"
        }
      ],
      "name": "RunnerRemoved",
      "type": "event"
    },
    {
      "anonymous": false,
      "inputs": [
        {
          "indexed": true,
          "internalType": "address",
          "name": "_user",
          "type": "address"
        },
        {
          "indexed": false,
          "internalType": "uint256",
          "name": "_timestamp",
          "type": "uint256"
        }
      ],
      "name": "sentTokens",
      "type": "event"
    },
    {
      "stateMutability": "payable",
      "type": "fallback"
    },
    {
      "inputs": [
        {
          "internalType": "address payable",
          "name": "_to",
          "type": "address"
        }
      ],
      "name": "faucet",
      "outputs": [],
      "stateMutability": "nonpayable",
      "type": "function"
    },
    {
      "inputs": [
        {
          "internalType": "address",
          "name": "_user",
          "type": "address"
        }
      ],
      "name": "getAddressTimeout",
      "outputs": [
        {
          "internalType": "uint256",
          "name": "",
          "type": "uint256"
        }
      ],
      "stateMutability": "view",
      "type": "function"
    },
    {
      "inputs": [],
      "name": "getBalance",
      "outputs": [
        {
          "internalType": "uint256",
          "name": "",
          "type": "uint256"
        }
      ],
      "stateMutability": "view",
      "type": "function"
    },
    {
      "inputs": [],
      "name": "getERC20TokenAddress",
      "outputs": [
        {
          "internalType": "address",
          "name": "",
          "type": "address"
        }
      ],
      "stateMutability": "view",
      "type": "function"
    },
    {
      "inputs": [],
      "name": "getERC20TokenMinimum",
      "outputs": [
        {
          "internalType": "uint256",
          "name": "",
          "type": "uint256"
        }
      ],
      "stateMutability": "view",
      "type": "function"
    },
    {
      "inputs": [],
      "name": "getFaucetDripAmount",
      "outputs": [
        {
          "internalType": "uint256",
          "name": "",
          "type": "uint256"
        }
      ],
      "stateMutability": "view",
      "type": "function"
    },
    {
      "inputs": [],
      "name": "getTimeout",
      "outputs": [
        {
          "internalType": "uint256",
          "name": "",
          "type": "uint256"
        }
      ],
      "stateMutability": "view",
      "type": "function"
    },
    {
      "inputs": [
        {
          "internalType": "address",
          "name": "_user",
          "type": "address"
        }
      ],
      "name": "hasERC20Token",
      "outputs": [
        {
          "internalType": "bool",
          "name": "",
          "type": "bool"
        }
      ],
      "stateMutability": "view",
      "type": "function"
    },
    {
      "inputs": [],
      "name": "owner",
      "outputs": [
        {
          "internalType": "address",
          "name": "",
          "type": "address"
        }
      ],
      "stateMutability": "view",
      "type": "function"
    },
    {
      "inputs": [
        {
          "internalType": "address",
          "name": "_runner",
          "type": "address"
        }
      ],
      "name": "removeRunner",
      "outputs": [],
      "stateMutability": "nonpayable",
      "type": "function"
    },
    {
      "inputs": [],
      "name": "renounceOwnership",
      "outputs": [],
      "stateMutability": "nonpayable",
      "type": "function"
    },
    {
      "inputs": [
        {
          "internalType": "address",
          "name": "newOwner",
          "type": "address"
        }
      ],
      "name": "transferOwnership",
      "outputs": [],
      "stateMutability": "nonpayable",
      "type": "function"
    },
    {
      "inputs": [
        {
          "internalType": "address",
          "name": "_runner",
          "type": "address"
        }
      ],
      "name": "verifyRunner",
      "outputs": [],
      "stateMutability": "nonpayable",
      "type": "function"
    },
    {
      "stateMutability": "payable",
      "type": "receive"
    }
  ],
  "bytecode": "0x60806040523480156200001157600080fd5b50604051620019a0380380620019a08339818101604052810190620000379190620001e2565b620000576200004b620000e860201b60201c565b620000f060201b60201c565b84600260006101000a81548173ffffffffffffffffffffffffffffffffffffffff021916908373ffffffffffffffffffffffffffffffffffffffff16021790555082600a620000a79190620002bf565b84620000b49190620003fc565b600381905550670de0b6b3a764000082620000d09190620003fc565b6005819055508060048190555050505050506200050b565b600033905090565b60008060009054906101000a900473ffffffffffffffffffffffffffffffffffffffff169050816000806101000a81548173ffffffffffffffffffffffffffffffffffffffff021916908373ffffffffffffffffffffffffffffffffffffffff1602179055508173ffffffffffffffffffffffffffffffffffffffff168173ffffffffffffffffffffffffffffffffffffffff167f8be0079c531659141344cd1fd0a4f28419497f9722a3daafe3b4186f6b6457e060405160405180910390a35050565b600081519050620001c581620004d7565b92915050565b600081519050620001dc81620004f1565b92915050565b600080600080600060a08688031215620001fb57600080fd5b60006200020b88828901620001b4565b95505060206200021e88828901620001cb565b94505060406200023188828901620001cb565b93505060606200024488828901620001cb565b92505060806200025788828901620001cb565b9150509295509295909350565b6000808291508390505b6001851115620002b6578086048111156200028e576200028d6200049b565b5b60018516156200029e5780820291505b8081029050620002ae85620004ca565b94506200026e565b94509492505050565b6000620002cc8262000491565b9150620002d98362000491565b9250620003087fffffffffffffffffffffffffffffffffffffffffffffffffffffffffffffffff848462000310565b905092915050565b600082620003225760019050620003f5565b81620003325760009050620003f5565b81600181146200034b576002811462000356576200038c565b6001915050620003f5565b60ff8411156200036b576200036a6200049b565b5b8360020a9150848211156200038557620003846200049b565b5b50620003f5565b5060208310610133831016604e8410600b8410161715620003c65782820a905083811115620003c057620003bf6200049b565b5b620003f5565b620003d5848484600162000264565b92509050818404811115620003ef57620003ee6200049b565b5b81810290505b9392505050565b6000620004098262000491565b9150620004168362000491565b9250817fffffffffffffffffffffffffffffffffffffffffffffffffffffffffffffffff04831182151516156200045257620004516200049b565b5b828202905092915050565b60006200046a8262000471565b9050919050565b600073ffffffffffffffffffffffffffffffffffffffff82169050919050565b6000819050919050565b7f4e487b7100000000000000000000000000000000000000000000000000000000600052601160045260246000fd5b60008160011c9050919050565b620004e2816200045d565b8114620004ee57600080fd5b50565b620004fc8162000491565b81146200050857600080fd5b50565b611485806200051b6000396000f3fe6080604052600436106100c65760003560e01c80638da5cb5b1161007f578063b91d82ba11610059578063b91d82ba1461025e578063cbdc564d14610287578063edb69ebb146102b2578063f2fde38b146102dd576100cd565b80638da5cb5b146101cd57806396570320146101f8578063b86d1d6314610235576100cd565b806312065fe0146100cf57806319d2d320146100fa5780633499ba9514610137578063624aa0fd14610162578063715018a61461018d578063818aa4df146101a4576100cd565b366100cd57005b005b3480156100db57600080fd5b506100e4610306565b6040516100f191906110d6565b60405180910390f35b34801561010657600080fd5b50610121600480360381019061011c9190610d65565b61030e565b60405161012e91906110d6565b60405180910390f35b34801561014357600080fd5b5061014c610357565b60405161015991906110d6565b60405180910390f35b34801561016e57600080fd5b50610177610361565b6040516101849190610f80565b60405180910390f35b34801561019957600080fd5b506101a261038b565b005b3480156101b057600080fd5b506101cb60048036038101906101c69190610d65565b610413565b005b3480156101d957600080fd5b506101e26105b9565b6040516101ef9190610f80565b60405180910390f35b34801561020457600080fd5b5061021f600480360381019061021a9190610d65565b6105e2565b60405161022c9190610f9b565b60405180910390f35b34801561024157600080fd5b5061025c60048036038101906102579190610d8e565b6106b0565b005b34801561026a57600080fd5b5061028560048036038101906102809190610d65565b6109a8565b005b34801561029357600080fd5b5061029c610b4e565b6040516102a991906110d6565b60405180910390f35b3480156102be57600080fd5b506102c7610b58565b6040516102d491906110d6565b60405180910390f35b3480156102e957600080fd5b5061030460048036038101906102ff9190610d65565b610b62565b005b600047905090565b6000600660008373ffffffffffffffffffffffffffffffffffffffff1673ffffffffffffffffffffffffffffffffffffffff168152602001908152602001600020549050919050565b6000600454905090565b6000600260009054906101000a900473ffffffffffffffffffffffffffffffffffffffff16905090565b610393610c5a565b73ffffffffffffffffffffffffffffffffffffffff166103b16105b9565b73ffffffffffffffffffffffffffffffffffffffff1614610407576040517f08c379a00000000000000000000000000000000000000000000000000000000081526004016103fe90611096565b60405180910390fd5b6104116000610c62565b565b61041b610c5a565b73ffffffffffffffffffffffffffffffffffffffff166104396105b9565b73ffffffffffffffffffffffffffffffffffffffff161461048f576040517f08c379a000000000000000000000000000000000000000000000000000000000815260040161048690611096565b60405180910390fd5b600160008273ffffffffffffffffffffffffffffffffffffffff1673ffffffffffffffffffffffffffffffffffffffff16815260200190815260200160002060009054906101000a900460ff1661051b576040517f08c379a000000000000000000000000000000000000000000000000000000000815260040161051290610fb6565b60405180910390fd5b6000600160008373ffffffffffffffffffffffffffffffffffffffff1673ffffffffffffffffffffffffffffffffffffffff16815260200190815260200160002060006101000a81548160ff0219169083151502179055508073ffffffffffffffffffffffffffffffffffffffff167fb50d2f20ab76e82fe675d3130121dd7b78ea1eb3a9c0e15075cd423e0671d65d60405160405180910390a250565b60008060009054906101000a900473ffffffffffffffffffffffffffffffffffffffff16905090565b600080600260009054906101000a900473ffffffffffffffffffffffffffffffffffffffff1690506005548173ffffffffffffffffffffffffffffffffffffffff166370a08231856040518263ffffffff1660e01b81526004016106469190610f80565b60206040518083038186803b15801561065e57600080fd5b505afa158015610672573d6000803e3d6000fd5b505050506040513d601f19601f820116820180604052508101906106969190610db7565b106106a55760019150506106ab565b60009150505b919050565b600160003373ffffffffffffffffffffffffffffffffffffffff1673ffffffffffffffffffffffffffffffffffffffff16815260200190815260200160002060009054906101000a900460ff1661073c576040517f08c379a000000000000000000000000000000000000000000000000000000000815260040161073390611076565b60405180910390fd5b600354471015610781576040517f08c379a0000000000000000000000000000000000000000000000000000000008152600401610778906110b6565b60405180910390fd5b603c600454610790919061110d565b4261079b9190611167565b600660008373ffffffffffffffffffffffffffffffffffffffff1673ffffffffffffffffffffffffffffffffffffffff16815260200190815260200160002054111561081c576040517f08c379a000000000000000000000000000000000000000000000000000000000815260040161081390611036565b60405180910390fd5b610825816105e2565b610864576040517f08c379a000000000000000000000000000000000000000000000000000000000815260040161085b90611056565b60405180910390fd5b42600660008373ffffffffffffffffffffffffffffffffffffffff1673ffffffffffffffffffffffffffffffffffffffff1681526020019081526020016000208190555060008173ffffffffffffffffffffffffffffffffffffffff166003546040516108d090610f6b565b60006040518083038185875af1925050503d806000811461090d576040519150601f19603f3d011682016040523d82523d6000602084013e610912565b606091505b5050905080610956576040517f08c379a000000000000000000000000000000000000000000000000000000000815260040161094d90611016565b60405180910390fd5b8173ffffffffffffffffffffffffffffffffffffffff167fabe2bfdbe3bd8def331233e8a1dc3dfa91327f2e994039e8d2dc8b72fbf2c4704260405161099c91906110d6565b60405180910390a25050565b6109b0610c5a565b73ffffffffffffffffffffffffffffffffffffffff166109ce6105b9565b73ffffffffffffffffffffffffffffffffffffffff1614610a24576040517f08c379a0000000000000000000000000000000000000000000000000000000008152600401610a1b90611096565b60405180910390fd5b600160008273ffffffffffffffffffffffffffffffffffffffff1673ffffffffffffffffffffffffffffffffffffffff16815260200190815260200160002060009054906101000a900460ff1615610ab1576040517f08c379a0000000000000000000000000000000000000000000000000000000008152600401610aa890610fd6565b60405180910390fd5b60018060008373ffffffffffffffffffffffffffffffffffffffff1673ffffffffffffffffffffffffffffffffffffffff16815260200190815260200160002060006101000a81548160ff0219169083151502179055508073ffffffffffffffffffffffffffffffffffffffff167f4d9d0977667b1db25ee3cf7bf49a7da1dc6e1ad3193cc78270ac0b5706f47f5a60405160405180910390a250565b6000600554905090565b6000600354905090565b610b6a610c5a565b73ffffffffffffffffffffffffffffffffffffffff16610b886105b9565b73ffffffffffffffffffffffffffffffffffffffff1614610bde576040517f08c379a0000000000000000000000000000000000000000000000000000000008152600401610bd590611096565b60405180910390fd5b600073ffffffffffffffffffffffffffffffffffffffff168173ffffffffffffffffffffffffffffffffffffffff161415610c4e576040517f08c379a0000000000000000000000000000000000000000000000000000000008152600401610c4590610ff6565b60405180910390fd5b610c5781610c62565b50565b600033905090565b60008060009054906101000a900473ffffffffffffffffffffffffffffffffffffffff169050816000806101000a81548173ffffffffffffffffffffffffffffffffffffffff021916908373ffffffffffffffffffffffffffffffffffffffff1602179055508173ffffffffffffffffffffffffffffffffffffffff168173ffffffffffffffffffffffffffffffffffffffff167f8be0079c531659141344cd1fd0a4f28419497f9722a3daafe3b4186f6b6457e060405160405180910390a35050565b600081359050610d358161140a565b92915050565b600081359050610d4a81611421565b92915050565b600081519050610d5f81611438565b92915050565b600060208284031215610d7757600080fd5b6000610d8584828501610d26565b91505092915050565b600060208284031215610da057600080fd5b6000610dae84828501610d3b565b91505092915050565b600060208284031215610dc957600080fd5b6000610dd784828501610d50565b91505092915050565b610de98161119b565b82525050565b610df8816111bf565b82525050565b6000610e0b6013836110fc565b9150610e1682611224565b602082019050919050565b6000610e2e6017836110fc565b9150610e398261124d565b602082019050919050565b6000610e516026836110fc565b9150610e5c82611276565b604082019050919050565b6000610e746014836110fc565b9150610e7f826112c5565b602082019050919050565b6000610e976021836110fc565b9150610ea2826112ee565b604082019050919050565b6000610eba6023836110fc565b9150610ec58261133d565b604082019050919050565b6000610edd601a836110fc565b9150610ee88261138c565b602082019050919050565b6000610f006020836110fc565b9150610f0b826113b5565b602082019050919050565b6000610f236019836110fc565b9150610f2e826113de565b602082019050919050565b6000610f466000836110f1565b9150610f5182611407565b600082019050919050565b610f65816111eb565b82525050565b6000610f7682610f39565b9150819050919050565b6000602082019050610f956000830184610de0565b92915050565b6000602082019050610fb06000830184610def565b92915050565b60006020820190508181036000830152610fcf81610dfe565b9050919050565b60006020820190508181036000830152610fef81610e21565b9050919050565b6000602082019050818103600083015261100f81610e44565b9050919050565b6000602082019050818103600083015261102f81610e67565b9050919050565b6000602082019050818103600083015261104f81610e8a565b9050919050565b6000602082019050818103600083015261106f81610ead565b9050919050565b6000602082019050818103600083015261108f81610ed0565b9050919050565b600060208201905081810360008301526110af81610ef3565b9050919050565b600060208201905081810360008301526110cf81610f16565b9050919050565b60006020820190506110eb6000830184610f5c565b92915050565b600081905092915050565b600082825260208201905092915050565b6000611118826111eb565b9150611123836111eb565b9250817fffffffffffffffffffffffffffffffffffffffffffffffffffffffffffffffff048311821515161561115c5761115b6111f5565b5b828202905092915050565b6000611172826111eb565b915061117d836111eb565b9250828210156111905761118f6111f5565b5b828203905092915050565b60006111a6826111cb565b9050919050565b60006111b8826111cb565b9050919050565b60008115159050919050565b600073ffffffffffffffffffffffffffffffffffffffff82169050919050565b6000819050919050565b7f4e487b7100000000000000000000000000000000000000000000000000000000600052601160045260246000fd5b7f52756e6e6572204e6f7420566572696669656400000000000000000000000000600082015250565b7f52756e6e657220416c7265616479205665726966696564000000000000000000600082015250565b7f4f776e61626c653a206e6577206f776e657220697320746865207a65726f206160008201527f6464726573730000000000000000000000000000000000000000000000000000602082015250565b7f4661696c656420746f2073656e64204574686572000000000000000000000000600082015250565b7f546f6f204561726c7920666f7220416e6f74686572204661756365742044726f60008201527f7000000000000000000000000000000000000000000000000000000000000000602082015250565b7f596f7520446f204e6f74204861766520456e6f75676820455243323020746f6b60008201527f656e730000000000000000000000000000000000000000000000000000000000602082015250565b7f4e6f7420566572696669656420746f2052756e20466175636574000000000000600082015250565b7f4f776e61626c653a2063616c6c6572206973206e6f7420746865206f776e6572600082015250565b7f496e73756666696369656e74204661756365742046756e647300000000000000600082015250565b50565b6114138161119b565b811461141e57600080fd5b50565b61142a816111ad565b811461143557600080fd5b50565b611441816111eb565b811461144c57600080fd5b5056fea26469706673582212200983a373a003ea7b509bb99838b5beff531db92ad21dbc5eb7f4e4c4f965cba664736f6c63430008040033",
  "linkReferences": {},
  "deployedLinkReferences": {}
}