{
  "_format": "hh-sol-artifact-1",
  "contractName": "SchusterEtherFaucet",
  "sourceName": "contracts/SchusterEtherFaucet.sol",
  "abi": [
    {
      "inputs": [
        {
          "internalType": "address",
          "name": "_tokenAddress",
          "type": "address"
        }
      ],
      "stateMutability": "nonpayable",
      "type": "constructor"
    },
    {
      "anonymous": false,
      "inputs": [
        {
          "indexed": true,
          "internalType": "address",
          "name": "previousOwner",
          "type": "address"
        },
        {
          "indexed": true,
          "internalType": "address",
          "name": "newOwner",
          "type": "address"
        }
      ],
      "name": "OwnershipTransferred",
      "type": "event"
    },
    {
      "stateMutability": "payable",
      "type": "fallback"
    },
    {
      "inputs": [
        {
          "internalType": "address payable",
          "name": "_to",
          "type": "address"
        }
      ],
      "name": "faucet",
      "outputs": [],
      "stateMutability": "nonpayable",
      "type": "function"
    },
    {
      "inputs": [],
      "name": "getBalance",
      "outputs": [
        {
          "internalType": "uint256",
          "name": "",
          "type": "uint256"
        }
      ],
      "stateMutability": "view",
      "type": "function"
    },
    {
      "inputs": [],
      "name": "owner",
      "outputs": [
        {
          "internalType": "address",
          "name": "",
          "type": "address"
        }
      ],
      "stateMutability": "view",
      "type": "function"
    },
    {
      "inputs": [],
      "name": "renounceOwnership",
      "outputs": [],
      "stateMutability": "nonpayable",
      "type": "function"
    },
    {
      "inputs": [
        {
          "internalType": "address",
          "name": "newOwner",
          "type": "address"
        }
      ],
      "name": "transferOwnership",
      "outputs": [],
      "stateMutability": "nonpayable",
      "type": "function"
    },
    {
      "stateMutability": "payable",
      "type": "receive"
    }
  ],
  "bytecode": "0x608060405234801561001057600080fd5b50604051610dca380380610dca8339818101604052810190610032919061019f565b61004e6100436100be60201b60201c565b6100c660201b60201c565b80600160006101000a81548173ffffffffffffffffffffffffffffffffffffffff021916908373ffffffffffffffffffffffffffffffffffffffff160217905550670de0b6b3a764000060028190555062015180600381905550681043561a882930000060048190555050610211565b600033905090565b60008060009054906101000a900473ffffffffffffffffffffffffffffffffffffffff169050816000806101000a81548173ffffffffffffffffffffffffffffffffffffffff021916908373ffffffffffffffffffffffffffffffffffffffff1602179055508173ffffffffffffffffffffffffffffffffffffffff168173ffffffffffffffffffffffffffffffffffffffff167f8be0079c531659141344cd1fd0a4f28419497f9722a3daafe3b4186f6b6457e060405160405180910390a35050565b600081519050610199816101fa565b92915050565b6000602082840312156101b157600080fd5b60006101bf8482850161018a565b91505092915050565b60006101d3826101da565b9050919050565b600073ffffffffffffffffffffffffffffffffffffffff82169050919050565b610203816101c8565b811461020e57600080fd5b50565b610baa806102206000396000f3fe60806040526004361061004e5760003560e01c806312065fe014610057578063715018a6146100825780638da5cb5b14610099578063b86d1d63146100c4578063f2fde38b146100ed57610055565b3661005557005b005b34801561006357600080fd5b5061006c610116565b6040516100799190610a47565b60405180910390f35b34801561008e57600080fd5b5061009761011e565b005b3480156100a557600080fd5b506100ae6101a6565b6040516100bb919061096c565b60405180910390f35b3480156100d057600080fd5b506100eb60048036038101906100e691906106db565b6101cf565b005b3480156100f957600080fd5b50610114600480360381019061010f91906106b2565b6103e1565b005b600047905090565b6101266104d9565b73ffffffffffffffffffffffffffffffffffffffff166101446101a6565b73ffffffffffffffffffffffffffffffffffffffff161461019a576040517f08c379a000000000000000000000000000000000000000000000000000000000815260040161019190610a07565b60405180910390fd5b6101a460006104e1565b565b60008060009054906101000a900473ffffffffffffffffffffffffffffffffffffffff16905090565b600254471015610214576040517f08c379a000000000000000000000000000000000000000000000000000000000815260040161020b90610a27565b60405180910390fd5b600354426102229190610a7e565b600560008373ffffffffffffffffffffffffffffffffffffffff1673ffffffffffffffffffffffffffffffffffffffff1681526020019081526020016000205411156102a3576040517f08c379a000000000000000000000000000000000000000000000000000000000815260040161029a906109c7565b60405180910390fd5b6102ac816105a5565b6102eb576040517f08c379a00000000000000000000000000000000000000000000000000000000081526004016102e2906109e7565b60405180910390fd5b42600560008373ffffffffffffffffffffffffffffffffffffffff1673ffffffffffffffffffffffffffffffffffffffff1681526020019081526020016000208190555060008173ffffffffffffffffffffffffffffffffffffffff1660025460405161035790610957565b60006040518083038185875af1925050503d8060008114610394576040519150601f19603f3d011682016040523d82523d6000602084013e610399565b606091505b50509050806103dd576040517f08c379a00000000000000000000000000000000000000000000000000000000081526004016103d4906109a7565b60405180910390fd5b5050565b6103e96104d9565b73ffffffffffffffffffffffffffffffffffffffff166104076101a6565b73ffffffffffffffffffffffffffffffffffffffff161461045d576040517f08c379a000000000000000000000000000000000000000000000000000000000815260040161045490610a07565b60405180910390fd5b600073ffffffffffffffffffffffffffffffffffffffff168173ffffffffffffffffffffffffffffffffffffffff1614156104cd576040517f08c379a00000000000000000000000000000000000000000000000000000000081526004016104c490610987565b60405180910390fd5b6104d6816104e1565b50565b600033905090565b60008060009054906101000a900473ffffffffffffffffffffffffffffffffffffffff169050816000806101000a81548173ffffffffffffffffffffffffffffffffffffffff021916908373ffffffffffffffffffffffffffffffffffffffff1602179055508173ffffffffffffffffffffffffffffffffffffffff168173ffffffffffffffffffffffffffffffffffffffff167f8be0079c531659141344cd1fd0a4f28419497f9722a3daafe3b4186f6b6457e060405160405180910390a35050565b600080600160009054906101000a900473ffffffffffffffffffffffffffffffffffffffff1690506004548173ffffffffffffffffffffffffffffffffffffffff166370a08231856040518263ffffffff1660e01b8152600401610609919061096c565b60206040518083038186803b15801561062157600080fd5b505afa158015610635573d6000803e3d6000fd5b505050506040513d601f19601f820116820180604052508101906106599190610704565b1061066857600191505061066e565b60009150505b919050565b60008135905061068281610b2f565b92915050565b60008135905061069781610b46565b92915050565b6000815190506106ac81610b5d565b92915050565b6000602082840312156106c457600080fd5b60006106d284828501610673565b91505092915050565b6000602082840312156106ed57600080fd5b60006106fb84828501610688565b91505092915050565b60006020828403121561071657600080fd5b60006107248482850161069d565b91505092915050565b61073681610ab2565b82525050565b6000610749602683610a6d565b91507f4f776e61626c653a206e6577206f776e657220697320746865207a65726f206160008301527f64647265737300000000000000000000000000000000000000000000000000006020830152604082019050919050565b60006107af601483610a6d565b91507f4661696c656420746f2073656e642045746865720000000000000000000000006000830152602082019050919050565b60006107ef602183610a6d565b91507f546f6f204561726c7920666f7220416e6f74686572204661756365742044726f60008301527f70000000000000000000000000000000000000000000000000000000000000006020830152604082019050919050565b6000610855602383610a6d565b91507f596f7520446f204e6f74204861766520456e6f75676820455243323020746f6b60008301527f656e7300000000000000000000000000000000000000000000000000000000006020830152604082019050919050565b60006108bb602083610a6d565b91507f4f776e61626c653a2063616c6c6572206973206e6f7420746865206f776e65726000830152602082019050919050565b60006108fb601983610a6d565b91507f496e73756666696369656e74204661756365742046756e6473000000000000006000830152602082019050919050565b600061093b600083610a62565b9150600082019050919050565b61095181610af6565b82525050565b60006109628261092e565b9150819050919050565b6000602082019050610981600083018461072d565b92915050565b600060208201905081810360008301526109a08161073c565b9050919050565b600060208201905081810360008301526109c0816107a2565b9050919050565b600060208201905081810360008301526109e0816107e2565b9050919050565b60006020820190508181036000830152610a0081610848565b9050919050565b60006020820190508181036000830152610a20816108ae565b9050919050565b60006020820190508181036000830152610a40816108ee565b9050919050565b6000602082019050610a5c6000830184610948565b92915050565b600081905092915050565b600082825260208201905092915050565b6000610a8982610af6565b9150610a9483610af6565b925082821015610aa757610aa6610b00565b5b828203905092915050565b6000610abd82610ad6565b9050919050565b6000610acf82610ad6565b9050919050565b600073ffffffffffffffffffffffffffffffffffffffff82169050919050565b6000819050919050565b7f4e487b7100000000000000000000000000000000000000000000000000000000600052601160045260246000fd5b610b3881610ab2565b8114610b4357600080fd5b50565b610b4f81610ac4565b8114610b5a57600080fd5b50565b610b6681610af6565b8114610b7157600080fd5b5056fea264697066735822122041a9cde88f6ce44118279a7a7af677d89a3ccc3cf4c30e2a8f951117287e9a7164736f6c63430008000033",
  "linkReferences": {},
  "deployedLinkReferences": {}
}