{
  "_format": "hh-sol-artifact-1",
  "contractName": "VerifiedAccounts",
  "sourceName": "contracts/VerifiedAccounts.sol",
  "abi": [
    {
      "anonymous": false,
      "inputs": [
        {
          "indexed": true,
          "internalType": "address",
          "name": "previousOwner",
          "type": "address"
        },
        {
          "indexed": true,
          "internalType": "address",
          "name": "newOwner",
          "type": "address"
        }
      ],
      "name": "OwnershipTransferred",
      "type": "event"
    },
    {
      "anonymous": false,
      "inputs": [
        {
          "indexed": true,
          "internalType": "address",
          "name": "_runner",
          "type": "address"
        }
      ],
      "name": "RunnerAdded",
      "type": "event"
    },
    {
      "anonymous": false,
      "inputs": [
        {
          "indexed": true,
          "internalType": "address",
          "name": "_runner",
          "type": "address"
        }
      ],
      "name": "RunnerRemoved",
      "type": "event"
    },
    {
      "inputs": [],
      "name": "owner",
      "outputs": [
        {
          "internalType": "address",
          "name": "",
          "type": "address"
        }
      ],
      "stateMutability": "view",
      "type": "function"
    },
    {
      "inputs": [
        {
          "internalType": "address",
          "name": "_runner",
          "type": "address"
        }
      ],
      "name": "removeRunner",
      "outputs": [],
      "stateMutability": "nonpayable",
      "type": "function"
    },
    {
      "inputs": [],
      "name": "renounceOwnership",
      "outputs": [],
      "stateMutability": "nonpayable",
      "type": "function"
    },
    {
      "inputs": [
        {
          "internalType": "address",
          "name": "newOwner",
          "type": "address"
        }
      ],
      "name": "transferOwnership",
      "outputs": [],
      "stateMutability": "nonpayable",
      "type": "function"
    },
    {
      "inputs": [
        {
          "internalType": "address",
          "name": "_runner",
          "type": "address"
        }
      ],
      "name": "verifyRunner",
      "outputs": [],
      "stateMutability": "nonpayable",
      "type": "function"
    }
  ],
  "bytecode": "0x608060405234801561001057600080fd5b5061002d61002261003260201b60201c565b61003a60201b60201c565b6100fe565b600033905090565b60008060009054906101000a900473ffffffffffffffffffffffffffffffffffffffff169050816000806101000a81548173ffffffffffffffffffffffffffffffffffffffff021916908373ffffffffffffffffffffffffffffffffffffffff1602179055508173ffffffffffffffffffffffffffffffffffffffff168173ffffffffffffffffffffffffffffffffffffffff167f8be0079c531659141344cd1fd0a4f28419497f9722a3daafe3b4186f6b6457e060405160405180910390a35050565b6109678061010d6000396000f3fe608060405234801561001057600080fd5b50600436106100575760003560e01c8063715018a61461005c578063818aa4df146100665780638da5cb5b14610082578063b91d82ba146100a0578063f2fde38b146100bc575b600080fd5b6100646100d8565b005b610080600480360381019061007b91906106ae565b610160565b005b61008a610306565b6040516100979190610772565b60405180910390f35b6100ba60048036038101906100b591906106ae565b61032f565b005b6100d660048036038101906100d191906106ae565b6104d5565b005b6100e06105cd565b73ffffffffffffffffffffffffffffffffffffffff166100fe610306565b73ffffffffffffffffffffffffffffffffffffffff1614610154576040517f08c379a000000000000000000000000000000000000000000000000000000000815260040161014b906107ed565b60405180910390fd5b61015e60006105d5565b565b6101686105cd565b73ffffffffffffffffffffffffffffffffffffffff16610186610306565b73ffffffffffffffffffffffffffffffffffffffff16146101dc576040517f08c379a00000000000000000000000000000000000000000000000000000000081526004016101d3906107ed565b60405180910390fd5b600160008273ffffffffffffffffffffffffffffffffffffffff1673ffffffffffffffffffffffffffffffffffffffff16815260200190815260200160002060009054906101000a900460ff16610268576040517f08c379a000000000000000000000000000000000000000000000000000000000815260040161025f9061078d565b60405180910390fd5b6000600160008373ffffffffffffffffffffffffffffffffffffffff1673ffffffffffffffffffffffffffffffffffffffff16815260200190815260200160002060006101000a81548160ff0219169083151502179055508073ffffffffffffffffffffffffffffffffffffffff167fb50d2f20ab76e82fe675d3130121dd7b78ea1eb3a9c0e15075cd423e0671d65d60405160405180910390a250565b60008060009054906101000a900473ffffffffffffffffffffffffffffffffffffffff16905090565b6103376105cd565b73ffffffffffffffffffffffffffffffffffffffff16610355610306565b73ffffffffffffffffffffffffffffffffffffffff16146103ab576040517f08c379a00000000000000000000000000000000000000000000000000000000081526004016103a2906107ed565b60405180910390fd5b600160008273ffffffffffffffffffffffffffffffffffffffff1673ffffffffffffffffffffffffffffffffffffffff16815260200190815260200160002060009054906101000a900460ff1615610438576040517f08c379a000000000000000000000000000000000000000000000000000000000815260040161042f906107ad565b60405180910390fd5b60018060008373ffffffffffffffffffffffffffffffffffffffff1673ffffffffffffffffffffffffffffffffffffffff16815260200190815260200160002060006101000a81548160ff0219169083151502179055508073ffffffffffffffffffffffffffffffffffffffff167f4d9d0977667b1db25ee3cf7bf49a7da1dc6e1ad3193cc78270ac0b5706f47f5a60405160405180910390a250565b6104dd6105cd565b73ffffffffffffffffffffffffffffffffffffffff166104fb610306565b73ffffffffffffffffffffffffffffffffffffffff1614610551576040517f08c379a0000000000000000000000000000000000000000000000000000000008152600401610548906107ed565b60405180910390fd5b600073ffffffffffffffffffffffffffffffffffffffff168173ffffffffffffffffffffffffffffffffffffffff1614156105c1576040517f08c379a00000000000000000000000000000000000000000000000000000000081526004016105b8906107cd565b60405180910390fd5b6105ca816105d5565b50565b600033905090565b60008060009054906101000a900473ffffffffffffffffffffffffffffffffffffffff169050816000806101000a81548173ffffffffffffffffffffffffffffffffffffffff021916908373ffffffffffffffffffffffffffffffffffffffff1602179055508173ffffffffffffffffffffffffffffffffffffffff168173ffffffffffffffffffffffffffffffffffffffff167f8be0079c531659141344cd1fd0a4f28419497f9722a3daafe3b4186f6b6457e060405160405180910390a35050565b6000813590506106a88161091a565b92915050565b6000602082840312156106c057600080fd5b60006106ce84828501610699565b91505092915050565b6106e08161081e565b82525050565b60006106f360138361080d565b91506106fe82610850565b602082019050919050565b600061071660178361080d565b915061072182610879565b602082019050919050565b600061073960268361080d565b9150610744826108a2565b604082019050919050565b600061075c60208361080d565b9150610767826108f1565b602082019050919050565b600060208201905061078760008301846106d7565b92915050565b600060208201905081810360008301526107a6816106e6565b9050919050565b600060208201905081810360008301526107c681610709565b9050919050565b600060208201905081810360008301526107e68161072c565b9050919050565b600060208201905081810360008301526108068161074f565b9050919050565b600082825260208201905092915050565b600061082982610830565b9050919050565b600073ffffffffffffffffffffffffffffffffffffffff82169050919050565b7f52756e6e6572204e6f7420566572696669656400000000000000000000000000600082015250565b7f52756e6e657220416c7265616479205665726966696564000000000000000000600082015250565b7f4f776e61626c653a206e6577206f776e657220697320746865207a65726f206160008201527f6464726573730000000000000000000000000000000000000000000000000000602082015250565b7f4f776e61626c653a2063616c6c6572206973206e6f7420746865206f776e6572600082015250565b6109238161081e565b811461092e57600080fd5b5056fea264697066735822122012b3dd8cfc5670233ce3d68c410acdca948b7e4d511d674b8268206edc0204f264736f6c63430008040033",
  "linkReferences": {},
  "deployedLinkReferences": {}
}